S01500004932435F736C617665746573742E7372656317
S113000045C0000053C0000051C000004FC00000B4
S11300104DC000004BC0000049C0000047C00000B4
S113002045C0000043C0000041C000003FC00000C4
S11300303DC000003BC0000039C0000037C00000D4
S113004035C0000033C0000031C000002FC00000E4
S11300502DC000002BC0000029C0000027C00000F4
S113006025C0000023C0000022C000001FC0000003
S11300701DC000001BC0000019C0000017C0000014
S113008015C0000013C0000011C0000011241FBEE1
S1130090CFEFD0E4DEBFCDBF22E0A0E0B1E001C0ED
S11300A01D92AF3FB207E1F783D092C0A9CF1F9250
S11300B00F920FB60F9211240BB60F928F939F934A
S11300C0EF93FF938091B900887F803649F48FEFD6
S11300D080930001ECEBF0E08081856C80835DC04F
S11300E08091B900887F803849F59091BB00809158
S11300F000018F3F41F490930001ECEBF0E080812C
S1130100856C80834AC0E0910001F0E0E050FE4F2E
S11301109083809100018F5F8093000180910001A2
S11301208F3F31F0ECEBF0E08081856C808335C04B
S1130130ECEBF0E08081856880832FC08091B9006A
S1130140887F883B29F59091BB00809100018F3F07
S113015011F490930001E0910001F0E0EF5FFE4F95
S113016080818093BB00809100018F5F80930001A8
S1130170809100018F3F31F0ECEBF0E08081856CE1
S113018080830BC0ECEBF0E080818568808305C040
S1130190ECEBF0E0808185648083FF91EF919F9187
S11301A08F910F900BBE0F900FBE0F901F9018955C
S11301B082E08093BA0085EC8093BC007894E0E000
S11301C0F2E090E881818F30E9F79AB99BB9FACFD0
S10701D0F894FFCFCD
S9030000FC
