S01900004B6F6D756E696B6174696F6E73206B6F642E7372656341
S113000045C0000060C000005EC000005CC000008D
S11300105AC0000058C0000056C0000054C0000080
S113002052C0000050C000004EC000004CC0000090
S11300304AC0000048C0000046C0000044C00000A0
S113004042C0000040C000003EC000003CC00000B0
S113005068C0000038C0000078C0000034C0000050
S113006032C0000030C000002EC000002CC00000D0
S11300702AC0000028C0000026C0000024C00000E0
S113008022C0000020C000001EC0000011241FBEBA
S1130090CFEFD0E4DEBFCDBF11E0A0E0B1E0ECE0F3
S11300A0F3E000E00BBF02C007900D92A032B1074D
S11300B0D9F721E0A0E2B1E001C01D92A232B2075B
S11300C0E1F71FD121C19CCF089588ED8093C10031
S11300D086E08093C2001092C50087E08093C4003C
S11300E02FEF8FEF98E0215080409040E1F700C05F
S11300F0000008952AE02AB9CB01E7CF0895E0EC87
S1130100F0E0908195FFFDCF8093C60008955B9841
S11301100895109221018091200108958091210178
S113012008951F920F920FB60F9211248F9380910E
S1130130C600809320015B9A81E0809321018F9116
S11301400F900FBE0F901F9018951F920F920FB62D
S11301500F9211240F900FBE0F901F90189582B923
S11301605F985E9A5F9A85E08A95F1F75F985E984A
S113017085E08A95F1F708955F985E9882B90895AD
S11301808FEF81B980EC8AB92FEF8FE794E021508B
S113019080409040E1F700C0000080E3EDDF86E29C
S11301A091E00197F1F700C0000088E3E5DF86E203
S11301B091E00197F1F700C000008CE0DDDF86E2FA
S11301C091E00197F1F700C0000081E0D5DF89E9F3
S11301D099E30197F1F700C086E0CEDF86E69EE062
S11301E00197F1F7000080E8C7DF86E291E001970C
S11301F0F1F700C000000895EF92FF920F931F9350
S1130200CF93DF937C0181E0B7DF86E291E0019731
S1130210F1F700C0000080E8AFDFE6E2F1E03197DB
S1130220F1F700C000008701E7016096F8018191B1
S11302308F0195DF86E291E00197F1F700C000009D
S11302400C171D0799F780EC97DFE6E2F1E0319790
S1130250F1F700C000008701005E1F4F89917FDF26
S113026086E291E00197F1F700C00000C017D107C2
S1130270A9F780EC81DFE6E2F1E03197F1F700C005
S11302800000DF91CF911F910F91FF90EF9008959F
S11302908FEF84B960E072EC81E090E02BDF70DFD7
S11302A078942FEF8FE794E0215080409040E1F75D
S11302B000C000000895CF93DF93CDB7DEB7A097B9
S11302C00FB6F894DEBF0FBECDBF80E2E0E0F1E0F0
S11302D0DE01119601900D928A95E1F7CE01019607
S11302E08BDF86E291E00197F1F700C0000016DF92
S11302F0882311F00EDF0BDF4A99F9CF84E0FFDE8B
S10F0300F6CFE2DEC5DFD7DFF894FFCFB4
S113030C746573740000000000000000000000001D
S113031C4D657220546573740000000000000000E9
S9030000FC
