:1000000045C0000060C000005EC000005CC0000091
:100010005AC0000058C0000056C0000054C0000084
:1000200052C0000050C000004EC000004CC0000094
:100030004AC0000048C0000046C0000044C00000A4
:1000400042C0000040C000003EC000003CC00000B4
:10005000ACC0000038C0000036C0000034C0000052
:1000600032C0000030C00000A8C100002CC0000059
:100070002AC0000028C0000026C0000024C00000E4
:1000800022C0000020C000001EC0000011241FBEBE
:10009000CFEFD0E4DEBFCDBF11E0A0E0B1E0EAE7F2
:1000A000F4E000E00BBF02C007900D92A430B1074E
:1000B000D9F721E0A4E0B1E001C01D92A235B2075A
:1000C000E1F7D6D1D8C19CCF089588E98093C100CB
:1000D00086E08093C2001092C50087E08093C40040
:1000E0002FEF8FEF98E0215080409040E1F700C063
:1000F000000008952AB12A602AB9CB01E6CF0895FD
:10010000E0ECF0E0908195FFFDCF8093C60008956C
:1001100080910A01882359F1209108018091020100
:1001200090910301019661F4822F82958F7090E087
:10013000909307018093060190930301809302013D
:100140008091020190910301E0910601F091070175
:10015000E81BF90BED5DFE4F20830197909303019F
:1001600080930201019619F081E0809309014A9978
:100170001BC080910001909101018F3F3FEF9307D9
:1001800099F0E0910401F0910501E81BF90BED5E97
:10019000FE4F8081B5DF80910001909101010197B0
:1001A000909301018093000108951F920F920FB662
:1001B0000F9211248F935B9A8091C600809308015F
:1001C00081E080930A018F910F900FBE0F901F90D6
:1001D00018955F9882B95E9895E09A95F1F75F9AC5
:1001E00095E09A95F1F75F9895E09A95F1F75E980A
:1001F0008150823028F483E39BE20197F1F7089560
:1002000080E791E00197F1F700C008958FEF81B981
:100210008AB1806C8AB98BB18F738BB92FEF8FE75E
:1002200094E0215080409040E1F700C0000088E356
:10023000D0DF8CE0CEDF81E0CCDF86E0CADF80E873
:10024000C8CF08958093BA0085EC8093BC003E9A95
:100250000895FB01208122952F70422F50E050938A
:10026000120140931101A2E4B1E09A012F5F3F4FC8
:10027000620F731F91919D93E617F707D9F780934B
:1002800051011092100110920F01469A469808955C
:100290006093BB00ECEBF0E08081806C8083808118
:1002A0008823ECF78091B900887F883BA1F084E92E
:1002B0008093BC00209111013091120180910F01B7
:1002C000909110012817390734F082E68A95F1F7EA
:1002D0000000469A469808958091B900887F80383A
:1002E00041F4ECEBF0E08081806C80838091BB0076
:1002F000089580E00895CF93DF938091B900887FBF
:100300008036B9F5C0910D01D0910E01E5DFCD5CCD
:10031000DE4F88838091330182958F7090E0209129
:100320000D0130910E018217930741F481E0809313
:100330000C01ECEBF0E080818F77808320910D0140
:1003400030910E01A9014F5F5F4F8091330182957B
:100350008F7090E04817590719F481E080930B01E2
:1003600050930E0140930D01F901ED5CFE4F808129
:1003700021C08091B900887F883AA1F480910F0153
:10038000909110019C012F5F3F4F309310012093FB
:100390000F01FC01EE5BFE4F60818091510178DF1F
:1003A00080E008C08091B900887F803811F494DF24
:1003B00001C080E0DF91CF9108951F920F920FB698
:1003C0000F9211240BB60F922F933F934F935F938D
:1003D0006F937F938F939F93AF93BF93EF93FF930D
:1003E0008ADF85EC8093BC00FF91EF91BF91AF91C4
:1003F0009F918F917F916F915F914F913F912F913D
:100400000F900BBE0F900FBE0F901F90189560E0DD
:1004100072EC81E090E06EDEF9DE82E013DF78942A
:100420002FEF8FEF99E5215080409040E1F700C019
:1004300000000895CF93DF9300D000D0CDB7DEB792
:100440008AE389838FE08A8382E18B8383E18C83D3
:100450005FDE2FEF8FEF9CE2215080409040E1F76C
:1004600000C00000BE016F5F7F4F84E0F2DEF0CF7E
:0A0470002BDECDDFDFDFF894FFCFB5
:04047A00FFFFFFFF82
:00000001FF
