S01900004B6F6D756E696B6174696F6E73206B6F642E7372656341
S113000045C0000060C000005EC000005CC000008D
S11300105AC0000058C0000056C0000054C0000080
S113002052C0000050C000004EC000004CC0000090
S11300304AC0000048C0000046C0000044C00000A0
S113004042C0000040C000003EC000003CC00000B0
S113005039C1000038C0000036C0000034C00000C0
S113006032C0000030C00000EEC100002CC000000F
S11300702AC0000028C0000026C0000024C00000E0
S113008022C0000020C000001EC0000011241FBEBA
S1130090CFEFD0E4DEBFCDBF11E0A0E0B1E0E4EDEE
S11300A0F6E000E00BBF02C007900D92A432B10746
S11300B0D9F721E0A4E2B1E001C01D92A137B20753
S11300C0E1F7DCD205C39CCF089588E98093C10091
S11300D086E08093C2001092C50087E08093C4003C
S11300E02FEF8FEF98E0215080409040E1F700C05F
S11300F0000008952AB12A602AB9CB01E6CF0895F9
S1130100E0ECF0E0908195FFFDCF8093C600089568
S11301105B980895FC01408142954F7050E05093E4
S11301202501409324015093010140930001A2E36F
S1130130B1E020E030E081918D932F5F3F4F421773
S11301405307CCF781E00895EF92FF920F931F932A
S1130150CF93DF93CDB7DEB7A0970FB6F894DEBF89
S11301600FBECDBF80912A01882381F120912801FF
S113017010922A018091020190910301019661F489
S1130180822F82958F7090E09093270180932601AF
S113019090930301809302018091020190910301E5
S11301A0E0912601F0912701E81BF90BEE5BFE4F6D
S11301B0208301979093030180930201019611F02B
S11301C0A7DF04C081E08093290105C08091290143
S11301D0882309F44DC0809142018F3309F03EC059
S11301E080914301813009F039C0E2E4F1E00281F9
S11301F010E0E381F0E00F2EF4E6EF2EF12CF02D69
S1130200C801B7013ED2CB012AE030E0B90139D2AE
S1130210805D898BC801B90134D2482FCB01B90163
S113022030D2805D8A8B405D4B8BCF01B70129D2E0
S1130230CB01B90126D2805D8983CF01B90121D2D6
S1130240482FCB01B9011DD2805D8A83405D4B8369
S1130250BE016F5F7F4FCE014196F2D162E471E03F
S113026084E04BD082E491E055DF1092290150DF05
S11302704A991BC080910001909101018F3F3FEF8B
S1130280930799F0E0912401F0912501E81BF90B03
S1130290EE5CFE4F808134DF80910001909101017A
S11302A001979093010180930001A0960FB6F894F2
S11302B0DEBF0FBECDBFDF91CF911F910F91FF9095
S11302C0EF9008951F920F920FB60F9211248F93FF
S11302D05B9A8091C6008093280181E080932A0173
S11302E08F910F900FBE0F901F9018958093BA00B6
S11302F085EC8093BC003E9A0895FB0120812295F1
S11303002F70422F50E05093310140933001A1E609
S1130310B1E09A012F5F3F4F620F731F91919D933C
S1130320E617F707D9F78093700110922F01109206
S11303302E01469AF6E3FA95F1F7000046980895DF
S11303406093BB00ECEBF0E08081806C8083808163
S11303508823ECF78091B900887F883BC1F084E959
S11303608093BC00209130013091310180912E01A5
S113037090912F012817390754F082E68A95F1F7F6
S11303800000469A86E38A95F1F70000469808959E
S1130390ECEBF0E08081806C808380818823ECF733
S11303A08091BB000895CF93DF938091B900887F3B
S11303B0803639F5C0912C01D0912D01E9DFCE5A58
S11303C0DE4F88838091520182958F7090E0209156
S11303D02C0130912D012817390734F4ECEBF0E0AF
S11303E080818F77808303C081E080932B0180918B
S11303F02C0190912D01019690932D0180932C0155
S11304001EC08091B900887F883A99F480912E01AA
S113041090912F019C012F5F3F4F30932F01209328
S11304202E01FC01EF59FE4F60818091700188DF3D
S113043006C08091B900887F803809F4A9DF80E084
S1130440DF91CF9108951F920F920FB60F9211244E
S11304500BB60F922F933F934F935F936F937F93BA
S11304608F939F93AF93BF93EF93FF939CDF85ECA0
S11304708093BC00FF91EF91BF91AF919F918F91B9
S11304807F916F915F914F913F912F910F900BBE90
S11304900F900FBE0F901F90189580912B01882309
S11304A071F082E591E036DE10922B0110922D015D
S11304B010922C01ECEBF0E080818F77808308951B
S11304C0169A00C016980895CF93DF93D82F662309
S11304D011F0149A01C01498159881B18F6081B9F4
S11304E0C2B1C07F8D2F82958F708C2B82B9E8DFCB
S11304F0DF70DC2BD2B9E4DFCF60C2B9DF91CF91DA
S11305000895882311F0149A01C01498159A81B1A2
S1130510807F81B9169A00C020B1169800C0169A3F
S113052000C090B12295207F892F8F701698822B5E
S1130530089580E0E6DF8823E4F382E08A95F1F70A
S113054080E0DFCF0895CF93C82FF3DF60E08C2FD6
S1130550BBDFCF910895611103C08058F4CF089593
S11305608054F1CF089581E0EEDF89EF90E00197A8
S1130570F1F700C000000895CF93C82FDADFCA3026
S113058041F4803410F080E001C080E48058DBDF67
S113059003C061E08C2F98DFCF910895CF93DF9350
S11305A0EC012196FC018081882321F0E5DF89910B
S11305B08111FCCFDF91CF910895CF93C82F91B1D2
S11305C09F6791B987E893E10197F1F700C00000B4
S11305D0119A109A75DF8BED95E00197F1F700C041
S11305E000006EDF97E19A95F1F7000069DF87E17B
S11305F08A95F1F70000109863DF97E19A95F1F777
S1130600000088E2A0DF88E09EDFADDF86E09BDFAC
S11306108C2F99DFCF91089560E072EC81E090E037
S113062069DD8CE0CADF82E061DE78942FEF8FEF22
S113063099E5215080409040E1F700C00000089502
S11306400F931F93CF93DF938C01EB018CDF60E05A
S113065080E081DFC801A2DF61E080E07CDFCE01C1
S11306609DDFDF91CF911F910F91089564E071E0B8
S113067083E191E0E5DF68DD10DFFDCF25DDCCDF30
S1130680F5DF97FB072E16F4009406D077FD08D00B
S11306900BD007FC05D03EF4909581959F4F0895AB
S11306A0709561957F4F0895AA1BBB1B51E107C04C
S11306B0AA1FBB1FA617B70710F0A61BB70B881FEE
S11306C0991F5A95A9F780959095BC01CD0108957D
S10706D0F894FFCFC8
S11306D4FFFFFFFF4B6F6D626F2D4D6F6E7374726E
S11306E465740050726F636573736F724B6C7562DB
S10706F462656E00C9
S9030000FC
