S01900004B6F6D756E696B6174696F6E73206B6F642E7372656341
S113000045C0000053C0000079C000004FC000008C
S11300104DC000004BC0000049C0000047C00000B4
S113002045C0000043C0000041C000003FC00000C4
S11300303DC000003BC0000039C0000037C00000D4
S113004035C0000033C0000031C000002FC00000E4
S11300502DC000002BC0000029C0000027C00000F4
S113006025C0000023C0000021C000001FC0000004
S11300701DC000001BC0000019C0000017C0000014
S113008015C0000013C0000011C0000011241FBEE1
S1130090CFEFD0E4DEBFCDBF21E0A0E0B1E001C0EE
S11300A01D92A730B207E1F772D073C0A9CF9BB1FC
S11300B01BB8E0ECF0E0908195FFFDCF8093C60083
S11300C00895F5DF1092010108959093C50080937F
S11300D0C40088E18093C10086E08093C200089543
S11300E02AB1207F25602AB9F0CF0895E0ECF0E032
S11300F080818823ECF78091C60008951F920F92A7
S11301000FB60F9211240BB60F922F933F934F9378
S11301105F936F937F938F939F93AF93BF93EF936B
S1130120FF93E4DF8093000181E080930101FF915C
S1130130EF91BF91AF919F918F917F916F915F915B
S11301404F913F912F910F900BBE0F900FBE0F90C8
S11301501F90189582E08DBB809304018093BA00B0
S113016080E092ECBDDF8FEF84B978940895CFEFEF
S1130170D0E882E090E0A5DF809101018111C5B94A
S113018080910501803FA9F7DAB9DBB9F2CFE2DF4C
S1090190EEDFF894FFCF3E
S9030000FC
