:1000000045C0000060C000005EC000005CC0000091
:100010005AC0000058C0000056C0000054C0000084
:1000200052C0000050C000004EC000004CC0000094
:100030004AC0000048C0000046C0000044C00000A4
:1000400042C0000040C000003EC000003CC00000B4
:1000500069C0000038C0000079C0000034C0000052
:1000600032C0000030C000002EC000002CC00000D4
:100070002AC0000028C0000026C0000024C00000E4
:1000800022C0000020C000001EC0000011241FBEBE
:10009000CFEFD0E4DEBFCDBF11E0A0E0B1E0E4E1FE
:1000A000F3E000E00BBF02C007900D92A232B1074F
:1000B000D9F721E0A2E2B1E001C01D92A432B2075B
:1000C000E1F723D125C19CCF089588ED8093C1002D
:1000D00086E08093C2001092C50087E08093C40040
:1000E0002FEF8FEF98E0215080409040E1F700C063
:1000F000000008952AB12A602AB9CB01E6CF0895FD
:10010000E0ECF0E0908195FFFDCF8093C60008956C
:100110005B980895109223018091220108958091A7
:10012000230108951F920F920FB60F9211248F93FF
:100130005B9A8091C6008093220181E08093230125
:100140008F910F900FBE0F901F9018951F920F92D6
:100150000FB60F9211240F900FBE0F901F9018959D
:1001600082B95F985E9A00005F9A80E791E00197FC
:10017000F1F700C05F985E9808955F985E9882B925
:100180008150823028F483E39BE20197F1F70895D0
:1001900080E791E00197F1F700C008958FEF81B9F2
:1001A0008AB1806C8AB92FEF8FE794E021508040AC
:1001B0009040E1F700C0000080E3DFDF88E3DDDF8F
:1001C00088E0DBDF81E0D9DF86E0D7CF0895CF93E9
:1001D000DF93EC01862FD1DF8DEF92DF8881C0DFC6
:1001E0008981BEDFDF91CF91089560E072EC81E0FC
:1001F00090E080DFD3DF78942FEF8FE794E02150F9
:1002000080409040E1F700C000000895CF93DF9355
:10021000CDB7DEB7C254D1090FB6F894DEBF0FBE1A
:10022000CDBF81E1E0E0F1E0DE01119601900D9299
:100230008A95E1F781E1E1E1F1E0DE01529601907A
:100240000D928A95E1F788E098DFAA24AA94BA2C47
:10025000812C912CEE24EA94FE2C00E010E06E013B
:1002600022E3C20ED11C5BDF882331F153DF3FEF65
:10027000E316F30629F4082F02950F7010E07801B9
:10028000F801EE19FF0923E230E02C0F3D1FE20FC9
:10029000F31F808331E0E31AF10810F039DF0CC05E
:1002A000FE01B396DE01D39681918D93EC15FD0589
:1002B000D9F72EDF5801480181E05FDF60E8CE0109
:1002C000019685DF60ECCE01429681DF9FEF2FEF34
:1002D0003CE2915020403040E1F700C000004A99D4
:1002E000C2CF8FEFA816B80609F4BDCFF401EA1902
:1002F000FB0923E330E02C0F3D1FE20FF31F808149
:10030000FFDE31E0A31AB108AECFDEDE6EDF7EDFA6
:04031000F894FFCF8F
:10031400646574746120617220746578742020208F
:10032400006D6572207465787420202020202020C0
:020334002000A7
:00000001FF
