S01900004B6F6D756E696B6174696F6E73206B6F642E7372656341
S113000045C0000060C000005EC000005CC000008D
S11300105AC0000058C0000056C0000054C0000080
S113002052C0000050C000004EC000004CC0000090
S11300304AC0000048C0000046C0000044C00000A0
S113004042C0000040C000003EC000003CC00000B0
S1130050DBC0000038C0000036C0000034C000001F
S113006032C0000030C0000090C100002CC000006D
S11300702AC0000028C0000026C0000024C00000E0
S113008022C0000020C000001EC0000011241FBEBA
S1130090CFEFD0E4DEBFCDBF11E0A0E0B1E0ECEAE9
S11300A0F4E000E00BBF02C007900D92A430B1074A
S11300B0D9F721E0A4E0B1E001C01D92A135B20757
S11300C0E1F7EFD1F1C19CCF089588E98093C10095
S11300D086E08093C2001092C50087E08093C4003C
S11300E02FEF8FEF98E0215080409040E1F700C05F
S11300F0000008952AB12A602AB9CB01E6CF0895F9
S1130100E0ECF0E0908195FFFDCF8093C600089568
S11301105B980895FC01408142954F7050E05093E4
S11301200501409304015093010140930001A2E1B1
S1130130B1E020E030E081918D932F5F3F4F421773
S11301405307CCF781E0089580910A01882381F157
S11301502091080110920A018091020190910301FB
S1130160019661F4822F82958F7090E0909307013D
S11301708093060190930301809302018091020110
S113018090910301E0910601F0910701E81BF90B3E
S1130190EE5DFE4F2083019790930301809302014B
S11301A0019611F0B5DF04C081E08093090104C019
S11301B080910901882351F062E271E084E03FD02C
S11301C082E291E0A7DF10920901A2DF4A991BC0E5
S11301D080910001909101018F3F3FEF930799F0C7
S11301E0E0910401F0910501E81BF90BEE5EFE4F6E
S11301F0808186DF809100019091010101979093A5
S113020001018093000108951F920F920FB60F927F
S113021011248F935B9A8091C6008093080181E03A
S113022080930A018F910F900FBE0F901F90189525
S11302308093BA0085EC8093BC003E9A0895FB013C
S1130240208122952F70422F50E05093110140934A
S11302501001A1E4B1E09A012F5F3F4F620F731FB9
S113026091919D93E617F707D9F780935001109267
S11302700F0110920E01469AF6E3FA95F1F7000089
S1130280469808956093BB00ECEBF0E08081806CAD
S1130290808380818823ECF78091B900887F883B34
S11302A0C1F084E98093BC002091100130911101C8
S11302B080910E0190910F012817390754F082E6BE
S11302C08A95F1F70000469A86E38A95F1F70000D3
S11302D046980895ECEBF0E08081806C8083808107
S11302E08823ECF78091BB000895CF93DF9380912E
S11302F0B900887F803639F5C0910C01D0910D0189
S1130300E9DFCE5CDE4F88838091320182958F7065
S113031090E020910C0130910D012817390734F435
S1130320ECEBF0E080818F77808303C081E08093E1
S11303300B0180910C0190910D01019690930D0198
S113034080930C011EC08091B900887F883A99F48B
S113035080910E0190910F019C012F5F3F4F3093CC
S11303600F0120930E01FC01EF5BFE4F6081809131
S1130370500188DF06C08091B900887F803809F475
S1130380A9DF80E0DF91CF9108951F920F920FB6FD
S11303900F9211240BB60F922F933F934F935F93B9
S11303A06F937F938F939F93AF93BF93EF93FF9339
S11303B09CDF85EC8093BC00FF91EF91BF91AF91DE
S11303C09F918F917F916F915F914F913F912F9169
S11303D00F900BBE0F900FBE0F901F901895809139
S11303E00B01882371F082E391E094DE10920B01FB
S11303F010920D0110920C01ECEBF0E080818F77EC
S1130400808308955F9882B95E9895E09A95F1F794
S11304105F9A95E09A95F1F75F9895E09A95F1F7D0
S11304205E988150823028F483E39BE20197F1F7D0
S1130430089580E791E00197F1F700C008958FEFE8
S113044081B98AB1806C8AB98BB18F738BB92FEF64
S11304508FE794E0215080409040E1F700C0000015
S113046088E3D0DF8CE0CEDF81E0CCDF86E0CADF3A
S113047080E8C8CF089560E072EC81E090E03ADE55
S1130480DEDF82E0D5DE78942FEF8FEF99E52150FF
S113049080409040E1F700C00000089555DE9FDFE2
S10F04A0FDCF12DEE8DFFADFF894FFCF96
S10704ACFFFFFFFF4C
S9030000FC
