S01900004B6F6D756E696B6174696F6E73206B6F642E7372656341
S113000045C0000060C000005EC000005CC000008D
S11300105AC0000058C0000056C0000054C0000080
S113002052C0000050C000004EC000004CC0000090
S11300304AC0000048C0000046C0000044C00000A0
S113004042C0000040C000003EC000003CC00000B0
S113005091C0000038C0000036C0000034C0000069
S113006032C0000030C000002EC000002CC00000D0
S11300702AC0000028C0000026C0000024C00000E0
S113008022C0000020C000001EC0000011241FBEBA
S1130090CFEFD0E4DEBFCDBF11E0A0E0B1E0EEE6EB
S11300A0F5E000E00BBF02C007900D92A230B1074B
S11300B0D9F721E0A2E0B1E001C01D92A330B2075C
S11300C0E1F7C9D052C29CCF0895809102010895EE
S11300D00F931F93BC0188ED8093C10086E0809349
S11300E0C200CB01A0E0B0E0880F991FAA1FBB1F7C
S11300F0880F991FAA1FBB1FBC01CD01660F771F74
S1130100881F991F660F771F881F991FA0D19B0115
S1130110AC0160E070E081E69BE405D120E030E0D2
S113012040E85FE39BD067D1072F182F292F33278F
S11301300093C5006093C4002FEF8FEF98E0215027
S113014080409040E1F700C000001F910F91089596
S11301502AE02AB9CB01BCCF0895E0ECF0E090810D
S113016095FFFDCF8093C6000895109202018091FF
S1130170000108951F920F920FB60F9211248F93CE
S113018081E0809302018091C600809300018F91E9
S11301900F900FBE0F901F9018955F985E9882B9CC
S11301A008958FEF81B980EC8AB92FEF8FE794E03F
S11301B0215080409040E1F700C0000080E3EDDF73
S11301C086E291E00197F1F700C0000088E3E5DFE3
S11301D086E291E00197F1F700C000008CE0DDDFDA
S11301E086E291E00197F1F700C0000081E0D5DFDD
S11301F089E999E30197F1F700C086E0CEDF86E64E
S11302009EE00197F1F7000080E8C7DF86E291E005
S11302100197F1F700C0000008958FEF84B960E002
S113022072EC81E090E094DFBCDF78942FEF8FE7ED
S113023094E0215080409040E1F700C00000089510
S1130240CFEF43DF8823E9F34A99FBCF8EDFC5B9AB
S113025084E083DFF6CF38DFE0DFF2DF5058BB27DE
S1130260AA270ED048C139D130F03ED120F031F464
S11302709F3F11F41EF42EC10EF4E095E7FB24C158
S1130280E92F4AD180F3BA176207730784079507E9
S113029018F071F49EF562C10EF4E0950B2EBA2F9E
S11302A0A02D0B01B90190010C01CA01A001112478
S11302B0FF27591B99F0593F50F4503E68F11A1624
S11302C0F040A22F232F342F4427585FF3CF4695B5
S11302D037952795A795F0405395C9F77EF41F16D7
S11302E0BA0B620B730B840BBAF09150A1F0FF0FA1
S11302F0BB1F661F771F881FC2F70EC0BA0F621F8D
S1130300731F841F48F4879577956795B795F7957C
S11303109E3F08F0B3CF9395880F08F09927EE0F0E
S11303209795879508950CD0E6C0DED040F0D5D0DF
S113033030F021F45F3F19F0C7C0511110C1CAC099
S1130340EBD098F39923C9F35523B1F3951B550BBF
S1130350BB27AA2762177307840738F09F5F5F4F94
S1130360220F331F441FAA1FA9F333D00E2E3AF0D5
S1130370E0E830D091505040E695001CCAF729D0EF
S1130380FE2F27D0660F771F881FBB1F261737073E
S11303904807AB07B0E809F0BB0B802DBF01FF276E
S11303A093585F4F2AF09E3F510568F08DC0D7C027
S11303B05F3FECF3983EDCF3869577956795B795A8
S11303C0F7959F5FC9F7880F911D9695879597F9C3
S11303D00895E1E0660F771F881FBB1F621773073C
S11303E08407BA0720F0621B730B840BBA0BEE1F51
S11303F088F7E095089598D088F09F5790F0B92F2A
S11304009927B751A0F0D1F0660F771F881F991F65
S11304101AF0BA95C9F712C0B13081F09FD0B1E09B
S113042008959CC0672F782F8827B85F39F0B93FAB
S1130430CCF3869577956795B395D9F73EF4909567
S11304408095709561957F4F8F4F9F4F0895E894E5
S113045009C097FB3EF490958095709561957F4F08
S11304608F4F9F4F9923A9F0F92F96E9BB279395B6
S1130470F695879577956795B795F111F8CFFAF4C6
S1130480BB0F11F460FF1BC06F5F7F4F8F4F9F4FF7
S113049016C0882311F096E911C0772321F09EE855
S11304A0872F762F05C0662371F096E8862F70E0BB
S11304B060E02AF09A95660F771F881FDAF7880F95
S11304C09695879597F9089597F99F6780E870E066
S11304D060E008959FEF80EC089500240A941616B6
S11304E0170618060906089500240A94121613061E
S11304F0140605060895092E0394000C11F48823AC
S113050052F0BB0F40F4BF2B11F460FF04C06F5FC7
S11305107F4F8F4F9F4F089557FD9058440F551F9D
S113052059F05F3F71F04795880F97FB991F61F071
S11305309F3F79F087950895121613061406551FE8
S1130540F2CF4695F1DF08C0161617061806991F54
S1130550F1CF86957105610508940895E894BB2749
S111056066277727CB0197F90895F894FFCF0B
S105056E040083
S9030000FC
