:1000000054C0000093C20000C2C10000E8C100005B
:1000100069C0000067C0000065C0000063C0000048
:1000200061C000005FC000005DC000005BC0000058
:1000300059C0000072C1000055C0000053C000004C
:1000400051C000004FC000004DC000004BC0000078
:1000500049C0000047C0000045C0000043C0000088
:1000600041C000003FC000003DC000003BC0000098
:1000700039C0000037C0000035C0000033C00000A8
:1000800031C000002FC000002DC00000DD02E202E0
:10009000F40200030403080344030C0310031503D4
:1000A0001D0325032D0335033D0311241FBECFEF90
:1000B000D0E4DEBFCDBF11E0A0E0B1E0E0E4F7E0C6
:1000C00000E00BBF02C007900D92A034B107D9F732
:1000D00021E0A0E4B1E001C01D92AE37B207E1F724
:1000E000D5D22CC38DCF089580914D0190914E01B2
:1000F000009721F415B817BC18BC089581309105FC
:1001000049F485B115B88091570187BD809155019B
:1001100088BD08958230910559F485B1806685B90E
:10012000809157018D5087BD8091550188BD0895FC
:100130008330910581F485B115B88091570187BD51
:10014000809155019091560199230CF40196959553
:10015000879588BD08958430910581F485B185B96E
:10016000809157019091580199230CF4019695952F
:10017000879587BD8091550188BD0895853091058B
:1001800051F485B115B82E9A8091570187BD8091A1
:10019000550188BD0895069749F42E982D9A8091AF
:1001A000570187BD8091550188BD089510924E0179
:1001B00010924D010895F89480917101909172010F
:1001C00020915D0130915E017894821B930B909396
:1001D0007B0180937A0120914B0130914C01AC015D
:1001E000421B530B50934A014093490120913E0119
:1001F00030913F01829FB001839F700D929F700DDF
:100200001124E0913C01F0913D014E9F90014F9FE0
:10021000300D5E9F300D1124260F371F309378016B
:100220002093770190934C0180934B0187B586957D
:1002300090E0281739073CF087B5869590E09093B9
:1002400078018093770188B590E091958195910927
:100250000AF4019695958795209177013091780160
:10026000821793076CF088B590E09195819591097C
:100270000AF401969595879590937801809377017C
:1002800080917701909178011816190644F49091A5
:100290005701981B97BD8091550188BD08959923FA
:1002A00054F48091570187BD909177018091550159
:1002B000890F88BD0895892B31F48091570187BD3E
:1002C0008091550188BD089580914F019091500112
:1002D000019709F070CF089584B5836A84BD17BC77
:1002E00018BC85B5836085BD88E784B985B115B82C
:1002F000089583E08AB9E1E8F0E080818D60808331
:1003000080EA95E09093890080938800EFE6F0E022
:10031000808182608083B19A08951F920F920FB6F8
:100320000F9211242F933F938F939F9381E090E03E
:100330009093540180935301809144019091450121
:100340000196909345018093440120915101309191
:1003500052012F5F3F4F30935201209351014D972F
:1003600024F010924501109244019F918F913F918A
:100370002F910F900FBE0F901F9018958DB3866030
:100380008DBBE9E6F0E080818862808308951F924A
:100390000F920FB60F9211248F939F9380915B0160
:1003A00090915C01019739F410925C0110925B010D
:1003B000599A58980CC010925A011092590181E034
:1003C00090E090935C0180935B01589A5998E19A70
:1003D0009F918F910F900FBE0F901F9018951F92B5
:1003E0000F920FB60F9211248F939F938091590112
:1003F00090915A01892B39F481E090E090935A0151
:100400008093590104C010925A0110925901E29A46
:100410009F918F910F900FBE0F901F90189588237A
:1004200069F03E983F98E89AE9E6F0E080818360C1
:10043000808380E18093B8001092B9000895ECEBBE
:10044000F0E09081946A908390819923ECF79091E9
:10045000B900987F983029F084E98093BC0080E04F
:10046000089581608093BB0084E88093BC00ECEB2E
:10047000F0E080818823ECF78091B900887F803498
:1004800029F084E98093BC0080E00895ECEBF0E073
:1004900080818468808380818823ECF78091BB0011
:1004A00094E99093BC00089520914201309143015A
:1004B0002115310589F4282F22952F7030E03093D3
:1004C0004101209340018093600181E090E090938E
:1004D00043018093420116C0409140015091410177
:1004E000241735075CF4F901E05AFE4F80832F5F33
:1004F0003F4F309343012093420104C0F901E05A79
:10050000FE4F808320914201309143018091400150
:10051000909141012817390744F081E0809346010A
:100520001092430110924201E89808951F920F9291
:100530000FB60F9211240BB60F922F933F934F9348
:100540005F936F937F938F939F93AF93BF93EF933B
:10055000FF930000369B04C082E071DFA5DF05C079
:10056000379B03C086E06BDF9FDFFF91EF91BF9168
:10057000AF919F918F917F916F915F914F913F913B
:100580002F910F900BBE0F900FBE0F901F901895DC
:1005900080914601882309F478C010924601209189
:1005A0006001E22FEF708E2F90E08F30910508F000
:1005B0006BC0FC01EA5BFF4FB8C080916101809382
:1005C000790162C0E0E6F1E0838190E090937201EE
:1005D00080937101828180937301818190E0909377
:1005E0005E0180935D0150C08091610190E0982F81
:1005F0008827820F911D9093700180936F0144C0F2
:1006000081E080937C0140C082E080937C013CC00B
:1006100083E080937C0138C081E080935F0134C027
:1006200010924E0110924D012FC081E090E0909306
:100630004E0180934D01589A27C0589A82E090E06D
:1006400090934E0180934D011FC0589A84E090E032
:1006500090934E0180934D0117C0589A83E090E02B
:1006600090934E0180934D010FC0589A86E090E020
:1006700090934E0180934D0107C0589A85E090E019
:1006800090934E0180934D01E89A089577DE2BDD1B
:1006900023DE2FDE81E0C3DE789484E690E0909341
:1006A0005801809357018DE590E090935601809317
:1006B000550184E687BD8091550188BD69DF809131
:1006C0005B0190915C018130910559F585B115B8B8
:1006D000E0914401F0914501EE0FFF1FE050FF4F04
:1006E00080819181909348018093470180915301CB
:1006F00090915401019761F48091590190915A01B0
:10070000019731F4E1DD1092540110925301D6CFDC
:100710008091590190915A01892B81F617BC18BC20
:10072000CDCF892B59F6E0DCC9CFEE0FFF1F002497
:10073000001C0BBE0790F691E02D0994F894FFCFB2
:10074000FBFFFBFFFBFFFBFFFDFFFDFFFBFFFDFFD3
:10075000FBFFFDFFFEFFFFFF0000000000000000A8
:100760000000000000000000000000000000000089
:100770000000050004000300020000000100020068
:04000005008001591D
:00000001FF
