S0130000737479726D6F64756C656E2E737265634B
S113000055C000000C94CB0C2EC7000054C7000050
S11300106CC000006AC0000068C0000066C0000038
S113002064C0000062C0000060C000005EC0000048
S11300305CC00000B9C6000058C0000056C00000F3
S113004054C0000052C0000050C000004EC0000068
S11300504CC000004AC0000048C0000046C0000078
S113006044C0000042C0000040C000003EC0000088
S11300703CC000003AC0000038C0000036C0000098
S113008034C0000032C0000030C000001E0D230D3B
S11300909C0DB60DBA0DBE0DC20D930ED90DDE0D1D
S11300A0E50DEC0DF30DFA0D010E080E11241FBE23
S11300B0CFEFD0E4DEBFCDBF11E0A0E0B1E0EEE0D1
S11300C0F2E200E00BBF02C007900D92A032B1072C
S11300D0D9F721E0A0E2B1E001C01D92AC3DB20726
S11300E0E1F70E94AE0E0C9405118ACF08952F9269
S11300F03F924F925F926F927F928F929F92AF92B4
S1130100BF92CF92DF92EF92FF920F931F93CF9300
S1130110DF9310925D0110925C01F8948090990134
S113012090909A012090C2013090C3017894C090BD
S11301305C01D0905D0105E010E0C0E0D0E0412C0E
S1130140512C32010F2EF5E0AF2EB12CF02DC5014C
S1130150801B910B089714F574010C2E02C0F594C2
S1130160E7940A94E2F783E0E822FF240E9DB001AD
S11301700F9D700D1E9D700D1124072E000C880B11
S1130180990B0E94E60F9B01AC01C301B2010E94CE
S1130190E70E2B013C01CE0CDF1C22C0CE014097A0
S11301A0710102C0F594E7948A95E2F783E0E822AE
S11301B0FF240E9DB0010F9D700D1E9D700D112426
S11301C0072E000C880B990B0E94E60F9B01AC01D3
S11301D0C301B2010E94E70E2B013C01CE0CDF1CCF
S11301E0229601501109C631D10509F0B0CFD09241
S11301F05D01C0925C01C114D10469F0B601DD0C4B
S1130200880B990B0E94E60F9B01AC01C301B2015C
S11302100E944B0F03C060E070E0CB010E94B30F5B
S1130220CB01DF91CF911F910F91FF90EF90DF9061
S1130230CF90BF90AF909F908F907F906F905F9082
S11302404F903F902F900895CF93DF93F89440916F
S1130250990150919A016091C2017091C3017894FF
S11302608091AC01882309F4A3C020915A013091F4
S11302705B01232BB1F42091560130915701232BBC
S113028081F4109267011092660181E090E09093EE
S11302905B0180935A01909357018093560180E04B
S11302A08EC02091660130916701243031050CF035
S11302B06FC0833071F5A0EFBFEF2BEFE0E0F0E00B
S11302C080E081111FC0E830F10584F4CF01880F6C
S11302D0991FEA0102C0D595C7958A95E2F7CE0128
S11302E086958170289F802D11240CC0CB010A2E85
S11302F002C0959587950A94E2F786958170289FA8
S1130300802D112431962F5F12962630D1F68DEF71
S113031056C0823069F4407F50939A01409399010A
S1130320637077277093C3016093C201E0DE47C016
S11303308130D1F5A6E0B0E0E6E08BE090E020E08B
S113034021111FC08830910584F49C01220F331FB2
S1130350EA0102C0D595C7952A95E2F79E01269534
S11303602170E29F202D11240CC09B010A2E02C093
S1130370359527950A94E2F726952170E29F202D62
S113038011240197E15012970097D1F683E017C02A
S11303901092AC0110925B0110925A011092570115
S11303A01092560180E00BC080E009C080E007C0D5
S11303B080916601909167010497C4F3E9CFDF91BE
S11303C0CF91089594DE80915C0190915D018D310F
S11303D091055CF0599A80915C0190915D01909334
S11303E025018093240181E0089520912401309116
S11303F02501AC01420F531F4532510594F02D31B4
S113040031057CF42091AC0121110BC0599A8091E3
S11304105C0190915D01909325018093240181E01A
S11304200895909325018093240180E008955FDE70
S11304308091580190915901892B69F4C3DF882375
S113044051F081E090E0909359018093580110920B
S1130450630110926201B6DF8823D1F080912601F6
S1130460909127019C012D7F232B91F4209162010F
S113047030916301253031055CF401969093270196
S1130480809326019BB182E089278BB980E008958F
S113049099DF81111BC02091260130912701A90108
S11304A04D7F4130510591F44091620150916301B7
S11304B0453051055CF42F5F3F4F30932701209363
S11304C026012BB192E092279BB908957BDF882304
S11304D0E1F080912601909127010497B1F4809175
S11304E062019091630105970CF03FC09BB182E0DB
S11304F089278BB9809126019091270101969093C9
S113050027018093260180E00895809199019091BC
S11305109A01892BC9F48091C2019091C301892B5E
S113052099F48091260190912701059769F48091AF
S113053062019091630105976CF410925901109235
S11305405801599A81E00895809162019091630164
S1130550059754F010922701109226011092590128
S11305601092580180E00895089580919901909126
S11305709A01892B79F7E8CF8091A5018E3168F42F
S11305808091AD018E3158F481E020915C0130916D
S11305905D01232B29F080E0089580E0089580E038
S11305A008952E982D9817BC18BC08952E982D9850
S11305B08091150187BD8091130188BD08952D9800
S11305C02E9A8CE387BD87E388BD08952D9A2E98D3
S11305D089E387BD84E388BD08958F929F92AF928B
S11305E0BF92CF92DF92EF92FF920F931F93CF931C
S11305F0DF938C01061B170B1093AB010093AA0128
S1130600C0914A01D0914B01CC0FDD1FCA58DE4F77
S113061088819981B801681B790B072E000C880B1F
S1130620990B0E94E60F6B017C0160934C0170935F
S11306304D0180934E0190934F018091110190914F
S11306401201089FB001099F700D189F700D1124AD
S1130650072E000C880B990B0E94E60F4B015C01DE
S113066060910F0170911001072E000C880B990BFB
S11306700E94E60F9B01AC01C701B6010E947210F3
S11306809B01AC01C501B4010E94E70E20E030E0FB
S113069040E251E40E944B0F0E94B30F7093C501D6
S11306A06093C401198308837723BCF080911301FC
S11306B088BD80911501909116012091C40130915B
S11306C0C5018217930724F49093C5018093C40154
S11306D09091C401891B87BD1AC08091150187BD03
S11306E0809113019091140122273327281B390B81
S11306F04091C4015091C5014217530724F430932B
S1130700C5012093C4019091C401890F88BDDF9174
S1130710CF911F910F91FF90EF90DF90CF90BF90FA
S1130720AF909F908F9008954F925F926F927F92B7
S11307308F929F92AF92BF92EF92FF920F931F936B
S1130740CF93DF9300910D0110910E01081B190B3B
S1130750C0914A01D0914B01CE01880F991F9C0191
S11307602A533E4F7901D9018D919C91B801681BA0
S1130770790B072E000C880B990B0E94E60F4B0196
S11307805C0160934C0170934D0180934E019093F2
S11307904F0180910A0190910B01089FB001099FBC
S11307A0700D189F700D1124072E000C880B990BE7
S11307B00E94E60F2B013C01609108017091090130
S11307C0072E000C880B990B0E94E60F9B01AC01CD
S11307D0C501B4010E9472109B01AC01C301B201B6
S11307E00E94E70E20E030E040E251E40E944B0F0B
S11307F00E94B30FFB01D7010D931C932196D09354
S11308004B01C0934A012091040130910501C217A4
S1130810D30724F010924B0110924A012091150144
S11308203091160144275527421B530B4E175F077F
S11308304CF4E0911301F0911401AB01E617F707B2
S11308400CF4AF01141615064CF09091130198BDE9
S113085090911501892F840F87BD06C027BD909103
S11308601301892F841B88BDDF91CF911F910F91B4
S1130870FF90EF90BF90AF909F908F907F906F907C
S11308805F904F9008954F925F926F927F928F92F4
S11308909F92AF92BF92EF92FF920F931F93CF93C9
S11308A0DF9300910D0110910E01081B190BC091EB
S11308B04A01D0914B01CE01880F991F9C012A5304
S11308C03E4F7901F90180819181B801681B790B50
S11308D0072E000C880B990B0E94E60F4B015C015C
S11308E060934C0170934D0180934E0190934F019E
S11308F080910A0190910B01089FB001099F700D2E
S1130900189F700D1124072E000C880B990B0E9460
S1130910E60F2B013C016091080170910901072E3B
S1130920000C880B990B0E94E60F9B01AC01C501DA
S1130930B4010E9472109B01AC01C301B2010E9478
S1130940E70E20E030E040E251E40E944B0F0E94A9
S1130950B30FAB01F701118300832196D0934B01B0
S1130960C0934A012091040130910501C217D307B5
S113097024F010924B0110924A01209115013091FC
S113098016014217530764F4409113015091140166
S1130990519541955109641775071CF4BA0101C0BA
S11309A0B901772344F08091130188BD809115012A
S11309B0861B87BD05C027BD80911301680F68BDE4
S11309C0DF91CF911F910F91FF90EF90BF90AF9067
S11309D09F908F907F906F905F904F9008954F926B
S11309E05F926F927F928F929F92AF92BF92CF92BB
S11309F0DF92EF92FF92F8946091290170912A019D
S1130A0080912B0190912C010E94B30F7894209136
S1130A10370130913801A901461B570BBA01072E43
S1130A20000C880B990B0E94E60F6B017C0160930C
S1130A3033017093340180933501909336012091F2
S1130A402D0130912E0140912F01509130010E94CF
S1130A50E60E4B015C0160934C0170934D01809351
S1130A604E0190934F016091020170910301072E92
S1130A70000C880B990B0E94E60F9B01AC01C70187
S1130A80B6010E9472102B013C016091000170912B
S1130A900101072E000C880B990B0E94E60F9B01A5
S1130AA0AC01C501B4010E9472109B01AC01C301E9
S1130AB0B2010E94E70E0E94B30F9B0170933201B2
S1130AC060933101C0922D01D0922E01E0922F014A
S1130AD0F092300140915C0150915D01452BE9F4A5
S1130AE02E9A2D9A6091170170911801660F771F45
S1130AF080916A0190916B010E94D51067BD60914D
S1130B00170170911801660F771F80916801909109
S1130B1069010E94D51068BDC3C077230CF057C08B
S1130B209B01772324F422273327261B370B80913C
S1130B3068019091690160911701709118010E94F8
S1130B40D5102617370724F12D9A2E9880916A0123
S1130B5090916B0160911701709118010E94D5105A
S1130B6067BD809131019091320199231CF49195D4
S1130B70819591092091680130916901821B930B41
S1130B8060911701709118010E94D51068BD88C04A
S1130B902E982D9880916A0190916B0160911701B4
S1130BA0709118010E94D51067BD209168013091A1
S1130BB069018091310190913201820F931F6091FC
S1130BC01701709118010E94D51068BD69C01616EE
S1130BD017060CF04BC080916A0190916B016091F3
S1130BE01701709118010E94D51026173707FCF0E1
S1130BF02E9A2D9880916801909169016091170156
S1130C00709118010E94D51068BD809131019091B6
S1130C10320120916A0130916B01821B930B609128
S1130C201701709118010E94D51067BD39C02E9824
S1130C302D988091680190916901609117017091DC
S1130C4018010E94D51068BD80916A0190916B01D2
S1130C502091310130913201821B930B6091170175
S1130C60709118010E94D51067BD1AC0672BC1F49A
S1130C702E982D9880916A0190916B0160911701D3
S1130C80709118010E94D51067BD80916801909100
S1130C90690160911701709118010E94D51068BD17
S1130CA0FF90EF90DF90CF90BF90AF909F908F9088
S1130CB07F906F905F904F90089581E090E09093C3
S1130CC01801809317018091AC0181508330C0F4E6
S1130CD0BBDA682F880F770B880B990B0E94E60FFD
S1130CE06093290170932A0180932B0190932C0126
S1130CF082E090E0909318018093170170CE0895DC
S1130D0096DB8823B1F02E982D9880916A0187BDD7
S1130D108091680188BD2FEF8FEF91E121508040D1
S1130D209040E1F700C0000010926D0110926C0138
S1130D30089522DC882331F0589A10921A011092F7
S1130D4019010895D4D9BC01990F880B990B0E94FD
S1130D50E60F6093290170932A0180932B019093ED
S1130D602C013DCE089584B5836A84BD17BC18BC9C
S1130D7085B5836085BD88E784B985B115B80895C4
S1130D8083E08AB9E1E8F0E080818D60808380EAC5
S1130D9095E09093890080938800EFE6F0E08081ED
S1130DA082608083B19A08951F920F920FB60F92BA
S1130DB011248F939F9380911B0190911C018A3081
S1130DC091052CF4019690931C0180931B0181E002
S1130DD080935F0180916401909165010196823353
S1130DE091052CF4909365018093640106C082E31D
S1130DF090E09093650180936401809166019091E5
S1130E0067010196823391052CF4909367018093D6
S1130E10660106C082E390E09093670180936601C7
S1130E2080916201909163010196823391052CF4C3
S1130E30909363018093620106C082E390E09093F3
S1130E406301809362019F918F910F900FBE0F9069
S1130E501F9018958DB386608DBBE9E6F0E0808124
S1130E608862808308951F920F920FB60F92112407
S1130E708F939F9380916E0190916F01019739F444
S1130E8010926F0110926E01599A58980CC01092EA
S1130E906D0110926C0181E090E090936F0180935A
S1130EA06E01589A5998E19A9F918F910F900FBEB5
S1130EB00F901F9018951F920F920FB60F92112446
S1130EC08F939F9380916C0190916D01892B39F4DC
S1130ED081E090E090936D0180936C0104C01092C6
S1130EE06D0110926C01E29A9F918F910F900FBE49
S1130EF00F901F901895882369F03E983F98E89AC0
S1130F00E9E6F0E080818360808380E18093B8002B
S1130F101092B90008958F929F92AF92BF92CF9290
S1130F20DF92EF92FF920F931F93CF93DF93EB0126
S1130F30088102950F7010E04B016894EE24E3F8E9
S1130F40F12C40E050E0ECEBF0E00F2EF4EADF2E61
S1130F50F02DA9EBB0E08E7FC82E6BEB70E084E837
S1130F606894AA24A4F8B12CD08290819923ECF738
S1130F702C91287F30E02E153F0569F5EB01C882DE
S1130F80808390819923ECF79C91987F983129F084
S1130F9084E98093BC0080E01FC0E40199914E0174
S1130FA0EB019883808390819923ECF79C91987F3F
S1130FB0983229F084E98093BC0080E00DC04F5F33
S1130FC05F4FEA2CFB2C0417150774F684E9809311
S1130FD0BC0081E001C080E0DF91CF911F910F91AF
S1130FE0FF90EF90DF90CF90BF90AF909F908F9045
S1130FF00895CF93DF931F92CDB7DEB787E089833F
S1131000BE016F5F7F4F86E086DF81E080935E01E3
S113101010921C0110921B01299A80911B0190913E
S11310201C010297CCF329980F90DF91CF9108957A
S113103020915201309153012130310549F410922D
S113104055011092540110925301109252010895C7
S11310508091500190915101019771F485E090E0E5
S113106090935501809354018091500190915101C6
S1131070009709F05BC051C08091540190915501D3
S1131080009729F42E982D9817BC18BC0895813028
S1131090910549F42E982D9880916A0187BD80911D
S11310A0680188BD08958230910559F485B1806640
S11310B085B980916A018D5087BD8091680188BD92
S11310C008958330910589F42E982D9880916A01B2
S11310D087BD2091680190916901822F63E070E0DF
S11310E00E94D510261B28BD08958430910589F4EB
S11310F02E982D9820916A0190916B01822F63E0C4
S113110070E00E94D510261B27BD8091680188BD20
S1131110089585309105A9F426C06BDF57DA81E084
S113112090E090935101809350010895019709F53F
S113113010925501109254011092510110925001D5
S11311400895069759F4232BA1F453DF38DA81E08C
S113115090E09093530180935201089510925501A9
S11311601092540108958091500190915101892B5E
S1131170A1F20895FC01DB019091480191116AC02C
S113118080910601909107018417950724F40EDAE3
S113119010924701089581E08093480180934901AA
S11311A010924701FEC908958091AC01833049F43F
S11311B020DF05DA81E090E09093400180933F01C5
S11311C008C017DF03DA82E090E090934001809337
S11311D03F0110924901209104013091050112163A
S11311E013060CF040C0E6ECF1E080E090E01192D0
S11311F01192019682179307D4F3089580915E01AA
S1131200811117C02E173F071CF02A173B073CF526
S113121081E08093470180913F01909140010197C3
S113122021F4BA01CD012FCB0895BA01CF017CCAB4
S11312300895809147018823B1F02A173B079CF059
S11312402E173F0784F010923E011092480110922D
S113125045010895809149018111A6CFCFCF809196
S113126047018111F0CF08950F931F93CF93DF931C
S1131270EC018B019BB181E098279BB980914801D7
S1131280811114C08091060190910701841795077C
S113129024F48CD91092470161C01092470181E077
S11312A080934801809349017CD958C080914901B9
S11312B0882369F1109249012C173D0784F499DEC3
S11312C07ED981E090E09093400180933F0140916A
S11312D0040150910501141615066CF03FC0261741
S11312E03707ACF786DE72D982E090E09093400134
S11312F080933F01ECCFE6ECF1E020E030E0119286
S113130011922F5F3F4F24173507CCF327C08091EC
S11313104701811123C02C173D071CF026173707FE
S113132074F480913F0190914001019721F4BA0136
S1131330C801A9DA13C0BA01CE01F6D90FC0C21789
S1131340D30764F4621773074CF481E08093470178
S113135010923D01109248011092450110934401EE
S113136000934301D0934201C0934101DF91CF9197
S11313701F910F9108950F931F93CF93DF93EC0167
S11313808B01599A8091480181110BC081E08093AF
S113139048018093490105D91092470110920C012C
S11313A090C080914901882361F110924901809194
S11313B0AC018330D9F0A0910401B09105011A1653
S11313C01B065CF4E6ECF1E020E030E011921192AF
S11313D02F5F3F4F2A173B07CCF3BA01C80153DAFA
S11313E081E0809347018093460102C002DEE7D882
S11313F01092440110924301109242011092410153
S11314006FC080914601882341F02C173D070CF0F2
S113141061C0BA01C80137DA54C08091AC0183308D
S113142019F12C173D074CF12017310734F1809145
S113143041019091420182179307FCF4809143018A
S11314409091440182179307C4F410923C0181E007
S113145080930C01109248011092AC011092460145
S11314605998109245012DC080914701811109C0FE
S113147081E0809347019AD824C080914701882352
S113148001F1C217D307ECF402171307D4F48091C7
S1131490410190914201821793079CF4809143018A
S11314A0909144018217930764F410923C01599877
S11314B01092480181E080930C0110924501109232
S11314C0AC011093440100934301D0934201C093B3
S11314D0410106C08091AC01833009F0A5CFC4CF8F
S11314E0DF91CF911F910F9108950F931F93CF9385
S11314F0DF93EC018B01E0911D01F0911E01319607
S1131500F0931E01E0931D0180910C01882361F08A
S11315104DD81092470110920C0110921E011092A6
S11315201D011092480182C08091480181110AC0B6
S11315301E161F063CF481E0809348018093490104
S113154030D874C090914901992369F18091AC011C
S113155082508230D8F480910401909105011816CC
S113156019065CF4E6ECF1E020E030E0119211920F
S11315702F5F3F4F28173907CCF3BA01CE01D4D8D7
S113158081E0809347018093460102C032DD1ED87A
S113159010924401109243011092420110924101B1
S11315A01092490154C090914601992339F02017B3
S11315B0310724F4BA01CE01B7D838C09091AC01F8
S11315C09230E9F5C217D3078CF50217130774F5A7
S11315D024173507BCF510923B0181E080930C0180
S11315E0109248011092AC011092460110924501EC
S11315F01DC08091470181110AC081E08093470199
S11316000E94D60213C080914701882379F0C21743
S1131610D30764F4021713074CF410923B011092A1
S1131620480181E080930C0110924501109344011C
S113163000934301D0934201C093410108C081113A
S1131640D8CFE1CF80914701882381F3E6CFDF91A2
S1131650CF911F910F910895F89440919F0150E00C
S11316606091AD0170E08091A50190E078942091A3
S1131670990130919A01232B31F42091C2013091C8
S1131680C301232BA1F02091390130913A012F5F3E
S11316903F4F30933A0120933901233031055CF0F8
S11316A021E030E030931A012093190104C0109214
S11316B03A011092390120913E01222321F028E2BF
S11316C030E058CD089520913D01222321F028E2F5
S11316D030E0CACD089520913C01222321F028E274
S11316E030E049CE089520913B01222321F028E2E5
S11316F030E0FBCE089520911D0130911E0124306D
S11317003105ACF4443251053CF02F5F3F4F309328
S11317101E0120931D0106C084E090E090931E01F9
S113172080931D0181E38A95F1F7000008958832C2
S11317309105B4F44432510564F4683271050CF037
S113174068C057DC0E94E6029BB181E089278BB90F
S11317500895683271050CF05CC00C94ED02089594
S11317602091450121110AC081E080934501109226
S11317701E0110921D010C94D60208958832910521
S11317800CF050C0483251050CF048C06932710564
S1131790C4F106C048325105A4F4683271053CF422
S11317A028E230E061DD81E080933D0108956932F3
S11317B071053CF028E230E0DDDC81E080933E01FD
S11317C0089549325105D4F068327105F4F421E0EA
S11317D020933C0128E230E0CECD08958832910573
S11317E06CF44932510554F0693271053CF028E239
S11317F030E07BDE81E080933B0108950C94D102BC
S11318000895893291059CF4ECCF8832910564F3F4
S1131810F5CF209145012111B5CFA6CF893291058D
S113182084F6DCCF893291050CF0B4CFE7CF68326F
S113183071053CF6B5CF8091190190911A01813060
S11318409105E9F48091600190916101019741F55E
S113185084EB90E090936B0180936A018AEA90E0B4
S1131860909369018093680184EB87BD809168013E
S113187088BD23DA10926101109260010895892BCA
S113188079F42D982E9880915F01882349F08091F6
S11318901B0190911C010A971CF010925F01DCCE91
S11318A00895ECEBF0E09081946A90839081992301
S11318B0ECF79091B900987F983029F084E98093EF
S11318C0BC0080E0089581608093BB0084E880932D
S11318D0BC00ECEBF0E080818823ECF78091B90048
S11318E0887F803429F084E98093BC0080E00895E7
S11318F0ECEBF0E080818468808380818823ECF7BE
S11319008091BB0094E99093BC000895209122013A
S1131910309123012115310589F4282F22952F7048
S113192030E0309321012093200180938A0181E0EB
S113193090E0909323018093220118C040912001EC
S1131940509121014F5F5F4F241735075CF4F90173
S1131950E657FE4F80832F5F3F4F30932301209340
S1131960220104C0F901E657FE4F808380912001D3
S11319709091210101962091220130912301281791
S1131980390744F081E080932801109223011092DA
S11319902201E89808951F920F920FB60F92112416
S11319A00BB60F922F933F934F935F936F937F9355
S11319B08F939F93AF93BF93EF93FF9385E08A95A3
S11319C0F1F7369B04C082E06CDFA0DF05C0379BD3
S11319D003C086E066DF9ADFFF91EF91BF91AF917C
S11319E09F918F917F916F915F914F913F912F9133
S11319F00F900BBE0F900FBE0F901F901895809103
S1131A002801882309F4A9C11092280180918A0130
S1131A1083FD0AC081E594E00197F1F700C000005E
S1131A206AE871E082E077DA80918A01E82FEF704A
S1131A308E2F90E0FC01EA5BFF4FCAC380918B01BB
S1131A408093A90170C180918D01E6EAF1E0808361
S1131A509181891708F06DC12091A801281728F0F9
S1131A6064C12091A801821718F48093AD010FC0BE
S1131A70291730F0891738F42091A801921718F427
S1131A809093AD0104C02091A8012093AD01E6EA32
S1131A90F1E09283818380918C01E2EAF1E080831A
S1131AA09181891708F04DC12091A401281728F0CD
S1131AB044C12091A401821718F480939F010FC0A0
S1131AC0291730F0891738F42091A401921718F4DB
S1131AD090939F0104C02091A40120939F01E2EA06
S1131AE0F1E09283818380918B01E0E7F1E08083D0
S1131AF09181891708F029C120917201281728F0D3
S1131B0028C120917201821718F48093A5010FC097
S1131B10291730F0891738F420917201921718F4BC
S1131B209093A50104C0209172012093A501E0E7E0
S1131B30F1E092838183F7C081E090E090936101AA
S1131B4080936001EAE8F1E0828190E0982F882791
S1131B502181820F911D90939A0180939901838131
S1131B6090E09093C3018093C201DDC081E0809333
S1131B70AC01D9C082E08093AC01D5C083E08093EE
S1131B80AC01D1C081E08093750110925E0118BC54
S1131B9017BC10925F0110921C0110921B019FEF61
S1131BA02FE786E1915020408040E1F700C000001B
S1131BB0BAC01092550110925401B5C081E090E072
S1131BC09093550180935401AEC082E090E09093CD
S1131BD0550180935401A7C084E090E0909355018F
S1131BE080935401A0C083E090E0909355018093CA
S1131BF0540199C086E090E090935501809354017C
S1131C0092C085E090E090935501809354018BC07D
S1131C1080918B01803F09F580916C0190916D0159
S1131C20019729F410926D0110926C017CC0E6E7D3
S1131C30F1E0AEEAB1E080E891E0119211921D92D8
S1131C401D92E817F907C9F781E090E090936D01C0
S1131C5080936C011092AC0166C08F30F1F48091D6
S1131C606E0190916F01019759F4599A5898109206
S1131C706F0110926E0110926D0110926C0153C0AD
S1131C80589A599881E090E090936F0180936E0187
S1131C9010926D0110926C0146C081111BC096E335
S1131CA09A95F1F70000EAE8F1E0828190E09093E0
S1131CB0010180930001238130E0309303012093DC
S1131CC00201843B910509F4599A26E32A95F1F718
S1131CD0000029C08130B9F481E38A95F1F700004E
S1131CE0EAE8F1E0838190E09093100180930F0182
S1131CF0828190E0909312018093110191E39A956F
S1131D00F1F7000010C0823071F4EAE8F1E082815A
S1131D1090E090936B0180936A01838190E09093AB
S1131D20690180936801E89A0895981708F499CE98
S1131D30A3CE981708F495CEA6CE981708F4B9CE7A
S1131D40C3CE981708F4B5CEC6CE981708F4D9CEEA
S1131D50EACE981708F4D5CEDFCE08957BD80E943A
S1131D60760001D80DD881E0C6D8789484EB90E051
S1131D7090936B0180936A018AEA90E090936901E1
S1131D808093680184EB87BD8091680188BD37DE4C
S1131D9080915E018111FBCF80916E0190916F0162
S1131DA08130910571F480916C0190916D018130C5
S1131DB0910511F440DDEBCF892B49F717BC18BC12
S1131DC0E6CF892B21F7599A33D9E1CF5058BB2755
S1131DD0AA270ED04DC13ED130F043D120F031F4CA
S1131DE09F3F11F41EF433C10EF4E095E7FB29C1C3
S1131DF0E92F4FD180F3BA17620773078407950759
S1131E0018F071F49EF567C10EF4E0950B2EBA2F0D
S1131E10A02D0B01B90190010C01CA01A0011124EC
S1131E20FF27591B99F0593F50F4503E68F11A1698
S1131E30F040A22F232F342F4427585FF3CF469529
S1131E4037952795A795F0405395C9F77EF41F164B
S1131E50BA0B620B730B840BBAF09150A1F0FF0F15
S1131E60BB1F661F771F881FC2F70EC0BA0F621F01
S1131E70731F841F48F4879577956795B795F795F1
S1131E809E3F08F0B3CF9395880F08F09927EE0F83
S1131E909795879508950CD0EBC0E3D040F0DAD045
S1131EA030F021F45F3F19F0CCC0511115C1CFC0FF
S1131EB0F0D098F39923C9F35523B1F3951B550B2F
S1131EC0BB27AA2762177307840738F09F5F5F4F09
S1131ED0220F331F441FAA1FA9F333D00E2E3AF04A
S1131EE0E0E830D091505040E695001CCAF729D064
S1131EF0FE2F27D0660F771F881FBB1F26173707B3
S1131F004807AB07B0E809F0BB0B802DBF01FF27E2
S1131F1093585F4F2AF09E3F510568F092C0DCC091
S1131F205F3FECF3983EDCF3869577956795B7951C
S1131F30F7959F5FC9F7880F911D9695879597F937
S1131F400895E1E0660F771F881FBB1F62177307B0
S1131F508407BA0720F0621B730B840BBA0BEE1FC5
S1131F6088F7E095089504D06894B111B5C0089538
S1131F7098D088F09F5790F0B92F9927B751A0F0C7
S1131F80D1F0660F771F881F991F1AF0BA95C9F709
S1131F9012C0B13081F09FD0B1E008959CC0672F8A
S1131FA0782F8827B85F39F0B93FCCF386957795B9
S1131FB06795B395D9F73EF49095809570956195A2
S1131FC07F4F8F4F9F4F0895E89409C097FB3EF4CD
S1131FD090958095709561957F4F8F4F9F4F992372
S1131FE0A9F0F92F96E9BB279395F69587957795F0
S1131FF06795B795F111F8CFFAF4BB0F11F460FFB0
S11320001BC06F5F7F4F8F4F9F4F16C0882311F007
S113201096E911C0772321F09EE8872F762F05C01B
S1132020662371F096E8862F70E060E02AF09A95B6
S1132030660F771F881FDAF7880F9695879597F9AB
S1132040089597F99F6780E870E060E008959FEF36
S113205080EC089500240A9416161706180609063B
S1132060089500240A94121613061406050608950A
S1132070092E0394000C11F4882352F0BB0F40F492
S1132080BF2B11F460FF04C06F5F7F4F8F4F9F4FD2
S1132090089557FD9058440F551F59F05F3F71F054
S11320A04795880F97FB991F61F09F3F79F08795BB
S11320B00895121613061406551FF2CF4695F1DF44
S11320C008C0161617061806991FF1CF86957105D4
S11320D0610508940895E894BB2766277727CB0108
S11320E097F908950BD0C4CFB5DF28F0BADF18F004
S11320F0952309F0A6CFABCF1124EECFCADFA0F30E
S1132100959FD1F3950F50E0551F629FF001729F88
S1132110BB27F00DB11D639FAA27F00DB11DAA1FA7
S1132120649F6627B00DA11D661F829F2227B00DF4
S1132130A11D621F739FB00DA11D621F839FA00D7F
S1132140611D221F749F3327A00D611D231F849FCF
S1132150600D211D822F762F6A2F11249F57504026
S11321608AF0E1F088234AF0EE0FFF1FBB1F661FC1
S1132170771F881F91505040A9F79E3F510570F07A
S113218060CFAACF5F3FECF3983EDCF3869577955A
S11321906795B795F795E7959F5FC1F7FE2B880F75
S11321A0911D9695879597F9089597FB072E16F438
S11321B0009406D077FD08D014D007FC05D03EF477
S11321C0909581959F4F0895709561957F4F0895DF
S11321D0EE0FFF1F0024001C0BBE0790F691E02DAC
S11321E00994AA1BBB1B51E107C0AA1FBB1FA6175A
S11321F0B70710F0A61BB70B881F991F5A95A9F7AC
S111220080959095BC01CD010895F894FFCF10
S113220EB400280002001E0096001100011400D232
S113221E000E005D0064000100010005000A0000CC
S903016C8F
