S0130000737479726D6F64756C656E2E737265634B
S113000055C000000C94610C65C700008BC700004C
S11300106CC000006AC0000068C0000066C0000038
S113002064C0000062C0000060C000005EC0000048
S11300305CC00000FCC6000058C0000056C00000B0
S113004054C0000052C0000050C000004EC0000068
S11300504CC000004AC0000048C0000046C0000078
S113006044C0000042C0000040C000003EC0000088
S11300703CC000003AC0000038C0000036C0000098
S113008034C0000032C0000030C00000B40CB90C11
S11300902E0D480D4C0D500D540D210E670D6C0D99
S11300A0730D7A0D810D880D8F0D960D11241FBED1
S11300B0CFEFD0E4DEBFCDBF11E0A0E0B1E0E2E8D5
S11300C0F1E200E00BBF02C007900D92A032B1072D
S11300D0D9F721E0A0E2B1E001C01D92AD3DB20725
S11300E0E1F70E943C0E0C94BF108ACF08952F9222
S11300F03F924F925F926F927F928F929F92AF92B4
S1130100BF92CF92DF92EF92FF920F931F93CF9300
S1130110DF9310925E0110925D01F89480909A0131
S113012090909B012090C3013090C4017894C090BA
S11301305D01D0905E0105E010E0C0E0D0E0412C0C
S1130140512C32010F2EF5E0AF2EB12CF02DC5014C
S1130150801B910B089714F574010C2E02C0F594C2
S1130160E7940A94E2F783E0E822FF240E9DB001AD
S11301700F9D700D1E9D700D1124072E000C880B11
S1130180990B0E94780F9B01AC01C301B2010E943C
S1130190750E2B013C01CE0CDF1C22C0CE01409712
S11301A0710102C0F594E7948A95E2F783E0E822AE
S11301B0FF240E9DB0010F9D700D1E9D700D112426
S11301C0072E000C880B990B0E94780F9B01AC0141
S11301D0C301B2010E94750E2B013C01CE0CDF1C41
S11301E0229601501109C631D10509F0B0CFD09241
S11301F05E01C0925D01C114D10469F0B601DD0C49
S1130200880B990B0E94780F9B01AC01C301B201CA
S11302100E94DD0E03C060E070E0CB010E94450F38
S1130220CB01DF91CF911F910F91FF90EF90DF9061
S1130230CF90BF90AF909F908F907F906F905F9082
S11302404F903F902F900895CF93DF93F89440916F
S11302509A0150919B016091C3017091C4017894FB
S11302608091AD01882309F4A3C020915B013091F2
S11302705C01232BB1F42091570130915801232BB9
S113028081F4109268011092670181E090E09093EC
S11302905C0180935B01909358018093570180E047
S11302A08EC02091670130916801243031050CF033
S11302B06FC0833071F5A0EFBFEF2BEFE0E0F0E00B
S11302C080E081111FC0E830F10584F4CF01880F6C
S11302D0991FEA0102C0D595C7958A95E2F7CE0128
S11302E086958170289F802D11240CC0CB010A2E85
S11302F002C0959587950A94E2F786958170289FA8
S1130300802D112431962F5F12962630D1F68DEF71
S113031056C0823069F4407F50939B0140939A0108
S1130320637077277093C4016093C301E0DE47C014
S11303308130D1F5A6E0B0E0E6E08BE090E020E08B
S113034021111FC08830910584F49C01220F331FB2
S1130350EA0102C0D595C7952A95E2F79E01269534
S11303602170E29F202D11240CC09B010A2E02C093
S1130370359527950A94E2F726952170E29F202D62
S113038011240197E15012970097D1F683E017C02A
S11303901092AD0110925C0110925B011092580111
S11303A01092570180E00BC080E009C080E007C0D4
S11303B080916701909168010497C4F3E9CFDF91BC
S11303C0CF91089594DE80915D0190915E018D310D
S11303D091055CF0599A80915D0190915E01909332
S11303E028018093270181E008952091270130910D
S11303F02801AC01420F531F4532510594F02D31B1
S113040031057CF42091AD0121110BC0599A8091E2
S11304105D0190915E01909328018093270181E012
S11304200895909328018093270180E00895809196
S1130430590190915A01892B69F4C4DF882351F042
S113044081E090E090935A018093590110926401E5
S113045010926301B7DF8823B1F080912901909154
S11304602A019C012D7F232B71F42091630130918B
S113047064012A3031053CF4019690932A0180935B
S1130480290180E008959EDF811117C02091290180
S113049030912A01A9014D7F4130510571F44091F9
S11304A06301509164014A3051053CF42F5F3F4F82
S11304B030932A0120932901089584DF882399F039
S11304C02091290130912A012430310561F42091D1
S11304D06301309164012A3031055CF410925A01B1
S11304E010925901089580916301909164010A97D3
S11304F054F010922A011092290110925A0110927C
S1130500590180E0089508958091A6018E3168F420
S11305108091AE018E3158F481E020915D013091DB
S11305205E01232B29F080E0089580E0089580E0A7
S113053008952E982D9817BC18BC08952E982D98C0
S11305408091170187BD8091150188BD08952D986C
S11305502E9A8CE387BD87E388BD08952D9A2E9843
S113056089E387BD84E388BD08954F925F926F92BB
S11305707F928F929F92AF92BF92EF92FF920F93CE
S11305801F93CF93DF937A018C01061B170B1093F3
S1130590AC010093AB01C0914B01D0914C01FE0121
S11305A0EE0FFF1FE958FE4F80819181B801681B4F
S11305B0790B072E000C880B990B0E94780F4B01C6
S11305C05C0160934D0170934E0180934F019093B1
S11305D0500120E030E040E450E40E94D90E88232A
S11305E00CF08CC020E030E040E450ECC501B401D4
S11305F00E942810181644F410924D0110924E01D6
S113060010924F01109250018091130190911401A6
S1130610089FB001099F700D189F700D1124072EBB
S1130620000C880B990B0E94780F4B015C018091A0
S1130630110190911201BC01990F880B990B0E9432
S1130640780F20914D0130914E0140914F0150910E
S113065050010E942C109B01AC01C501B4010E9401
S1130660750E20E030E040E251E40E94DD0E0E946D
S1130670450F7093C6016093C501CC0FDD1FC958A7
S1130680DE4F198308837723BCF08091150188BD60
S113069080911701909118012091C5013091C601F4
S11306A08217930724F49093C6018093C501909117
S11306B0C501891B87BD1AC08091170187BD809130
S11306C015019091160122273327281B390B4091DD
S11306D0C5015091C6014217530724F43093C60153
S11306E02093C5019091C501890F88BD84E2E81665
S11306F0F1040CF042C017BC18BC3FC08091130138
S113070090911401089FB001099F700D189F700DFE
S11307101124072E000C880B990B0E94780F2B01D3
S11307203C016091110170911201072E000C880B9D
S1130730990B0E94780F9B01AC01C501B4010E9482
S11307402C109B01AC01C301B2010E94750E20E084
S113075030E040E251E40E94DD0E0E94450F7093A8
S1130760C6016093C501CC0FDD1FC958DE4F198344
S1130770088377230CF089CF9FCFDF91CF911F910E
S11307800F91FF90EF90BF90AF909F908F907F90CC
S11307906F905F904F900895CF92DF92EF92FF9207
S11307A00F931F93CF93DF9300910F0110911001CA
S11307B0081B190BC0914B01D0914C01FE01EE0FA7
S11307C0FF1FE953FE4F80819181B801681B790BAB
S11307D0072E000C880B990B0E94780F6B017C018B
S11307E020E030E040E450E40E94D90E88234CF02D
S11307F0C0924D01D0924E01E0924F01F09250010F
S113080008C010924D0110924E0110924F011092A7
S113081050018091130190911401089FB001099F28
S1130820700D189F700D1124072E000C880B990B66
S11308300E94780F6B017C0180911101909112014B
S1130840BC01990F880B990B0E94780F20914D01E0
S113085030914E0140914F01509150010E942C1053
S11308609B01AC01C701B6010E94750E20E030E087
S113087040E251E40E94DD0E0E94450FAB01FE01EF
S1130880EE0FFF1FE953FE4F118300832196D0938F
S11308904C01C0934B012091040130910501C21712
S11308A0D30724F010924C0110924B0120911701B0
S11308B030911801EE27FF27E21BF30BE417F5072D
S11308C04CF44091150150911601FB01461757074E
S11308D00CF4FA011E161F064CF09091150198BDF8
S11308E090911701892F8E0F87BD06C027BD909167
S11308F01501892F8E1B88BDDF91CF911F910F9118
S1130900FF90EF90DF90CF9008954F925F926F9297
S11309107F928F929F92AF92BF92EF92FF920F932A
S11309201F93CF93DF9300910F0110911001081BC7
S1130930190BC0914B01D0914C01CE01880F991F26
S11309409C0129533E4F7901F90180819181B801BD
S1130950681B790B072E000C880B990B0E94780FEB
S11309604B015C0160934D0170934E0180934F01E4
S11309709093500180910A0190910B01089FB0015E
S1130980099F700D189F700D1124072E000C880B01
S1130990990B0E94780F2B013C0160910801709122
S11309A00901072E000C880B990B0E94780F9B01FC
S11309B0AC01C501B4010E942C109B01AC01C30120
S11309C0B2010E94750E20E030E040E251E40E9442
S11309D0DD0E0E94450FAB01F701118300832196C0
S11309E0D0934C01C0934B0120910D0130910E0125
S11309F0C217D30724F010924C0110924B0120919E
S1130A001701309118014217530764F440911501FE
S1130A1050911601519541955109641775071CF4BD
S1130A20BA0101C0B901772344F08091150188BD52
S1130A3080911701861B87BD05C027BD80911501D4
S1130A40680F68BDDF91CF911F910F91FF90EF90D8
S1130A50BF90AF909F908F907F906F905F904F90DA
S1130A6008954F925F926F927F928F929F92AF926E
S1130A70BF92CF92DF92EF92FF92F89460912C0193
S1130A8070912D0180912E0190912F010E94450FAC
S1130A90789420913A0130913B01A901461B570BF0
S1130AA0BA01072E000C880B990B0E94780F6B017A
S1130AB07C016093360170933701809338019093E1
S1130AC0390120913001309131014091320150912E
S1130AD033010E94740E4B015C0160934D017093CD
S1130AE04E0180934F0190935001609102017091E7
S1130AF00301072E000C880B990B0E94780F9B01B1
S1130B00AC01C701B6010E942C102B013C0160917D
S1130B10000170910101072E000C880B990B0E94B3
S1130B20780F9B01AC01C501B4010E942C109B01FC
S1130B30AC01C301B2010E94750E0E94450F9B01D6
S1130B407093350160933401C0923001D092310129
S1130B50E0923201F092330140915D0150915E01C7
S1130B60452BE9F42E9A2D9A6091190170911A017E
S1130B70660F771F80916B0190916C010E948F101A
S1130B8067BD6091190170911A01660F771F8091FA
S1130B90690190916A010E948F1068BDC3C07723D8
S1130BA00CF057C09B01772324F422273327261BFC
S1130BB0370B8091690190916A01609119017091DC
S1130BC01A010E948F102617370724F12D9A2E98A8
S1130BD080916B0190916C016091190170911A01DF
S1130BE00E948F1067BD8091340190913501992343
S1130BF01CF49195819591092091690130916A01C4
S1130C00821B930B6091190170911A010E948F103D
S1130C1068BD88C02E982D9880916B0190916C01CD
S1130C206091190170911A010E948F1067BD209183
S1130C30690130916A018091340190913501820FEC
S1130C40931F6091190170911A010E948F1068BD61
S1130C5069C0161617060CF04BC080916B01909179
S1130C606C016091190170911A010E948F1026176E
S1130C703707FCF02E9A2D988091690190916A01B2
S1130C806091190170911A010E948F1068BD8091C2
S1130C9034019091350120916B0130916C01821BDC
S1130CA0930B6091190170911A010E948F1067BD16
S1130CB039C02E982D988091690190916A016091B4
S1130CC0190170911A010E948F1068BD80916B0107
S1130CD090916C012091340130913501821B930B6A
S1130CE06091190170911A010E948F1067BD1AC09A
S1130CF0672BC1F42E982D9880916B0190916C0113
S1130D006091190170911A010E948F1067BD809142
S1130D10690190916A016091190170911A010E9410
S1130D208F1068BDFF90EF90DF90CF90BF90AF9091
S1130D309F908F907F906F905F904F90089581E087
S1130D4090E090931A01809319018091AD01815034
S1130D508330C0F479DA682F880F770B880B990BEE
S1130D600E94780F60932C0170932D0180932E01C3
S1130D7090932F0182E090E090931A0180931901DF
S1130D8070CE089554DB8823B9F02E982D98809165
S1130D906B0187BD8091690188BD2FEF8FEF91E1D1
S1130DA0215080409040E1F700C0000010926E0195
S1130DB010926D01599A0895A7DB882331F0589A4F
S1130DC010921C0110921B01089591D9BC01990F36
S1130DD0880B990B0E94780F60932C0170932D015E
S1130DE080932E0190932F013CCE089584B5836A9D
S1130DF084BD17BC18BC85B5836085BD88E784B9FC
S1130E0085B115B8089583E08AB9E1E8F0E08081FE
S1130E108D60808380EA95E09093890080938800B8
S1130E20EFE6F0E0808182608083B19A08951F929A
S1130E300F920FB60F9211248F939F9381E08093AA
S1130E40600180916501909166010196823391055C
S1130E502CF4909366018093650106C082E390E0D0
S1130E609093660180936501809167019091680178
S1130E700196823391052CF4909368018093670165
S1130E8006C082E390E090936801809367018091AB
S1130E906301909164010196823391052CF490933F
S1130EA064018093630106C082E390E0909364013F
S1130EB0809363019F918F910F900FBE0F901F90AD
S1130EC018958DB386608DBBE9E6F0E08081886279
S1130ED0808308951F920F920FB60F9211248F935F
S1130EE09F9380916F0190917001019739F4109252
S1130EF0700110926F01599A58980CC010926E01AB
S1130F0010926D0181E090E09093700180936F01E5
S1130F10589A5998E19A9F918F910F900FBE0F9014
S1130F201F9018951F920F920FB60F9211248F9352
S1130F309F9380916D0190916E01892B39F481E02A
S1130F4090E090936E0180936D0104C010926E0145
S1130F5010926D01E29A9F918F910F900FBE0F90A6
S1130F601F901895882369F03E983F98E89AE9E61F
S1130F70F0E080818360808380E18093B8001092E8
S1130F80B90008958F929F92AF92BF92CF92DF9251
S1130F90EF92FF920F931F93CF93DF93EB0108819E
S1130FA002950F7010E04B016894EE24E3F8F12CE5
S1130FB040E050E0ECEBF0E00F2EF4EADF2EF02DF1
S1130FC0A9EBB0E08E7FC82E6BEB70E084E86894E8
S1130FD0AA24A4F8B12CD08290819923ECF72C9107
S1130FE0287F30E02E153F0569F5EB01C882808328
S1130FF090819923ECF79C91987F983129F084E9AA
S11310008093BC0080E01FC0E40199914E01EB0184
S11310109883808390819923ECF79C91987F9832F0
S113102029F084E98093BC0080E00DC04F5F5F4FDE
S1131030EA2CFB2C0417150774F684E98093BC0092
S113104081E001C080E0DF91CF911F910F91FF906B
S1131050EF90DF90CF90BF90AF909F908F900895C6
S1131060CF93DF931F92CDB7DEB787E08983BE01AC
S11310706F5F7F4F86E086DF81E080935F012FEF13
S11310808FE794E0215080409040E1F700C00000D9
S11310900F90DF91CF910895209153013091540125
S11310A02130310549F410925601109255011092E5
S11310B0540110925301089580915101909152016D
S11310C0019771F485E090E0909356018093550167
S11310D08091510190915201009709F059C04FC07D
S11310E08091550190915601009729F42E982D98DE
S11310F017BC18BC08958130910549F42E982D9899
S113110080916B0187BD8091690188BD089582300B
S1131110910559F485B1806685B980916B018D5034
S113112087BD8091690188BD08958330910581F45C
S11311302E982D9880916B0187BD20916901909123
S11311406A01822F63E070E0EAD7261B28BD089568
S11311508430910581F42E982D9820916B01909103
S11311606C01822F63E070E0DAD7261B27BD8091E3
S1131170690188BD089585309105A9F426C070DF02
S1131180EDD981E090E0909352018093510108954C
S1131190019709F5109256011092550110925201CF
S11311A0109251010895069759F4232BA1F458DFA6
S11311B0CED981E090E09093540180935301089537
S11311C01092560110925501089580915101909109
S11311D05201892BA1F20895FC01909149019111CA
S11311E040C080910601909107018417950724F46B
S11311F0A5D910924801089581E080934901809314
S11312004A011092480195C908958091AD01833037
S113121019F426DF9CD902C023DFA0D910924A0119
S1131220089580915F0181110BC02E173F071CF0B8
S1131230261737072CF481E0809348017FC908956D
S113124080914801882391F0621773077CF4E217B8
S1131250F30764F410923F01109249011092460181
S1131260089580914A018111D0CFDBCF08950F9367
S11312701F93CF93DF93EC018B018BB191E09827FF
S11312809BB980914901811114C08091060190910C
S113129007018417950724F451D9109248014DC0D1
S11312A01092480181E08093490180934A0141D919
S11312B044C080914A018823D1F010924A012C172E
S11312C03D074CF4CDDE43D981E090E09093410199
S11312D08093400132C0261737077CF5C1DE3ED922
S11312E082E090E0909341018093400126C0809178
S11312F04801811122C02C173D071CF0261737071F
S11313006CF48091400190914101019721F4BA015C
S1131310C801FBDA12C0CE013FDA0FC0C217D307EF
S113132064F4621773074CF481E0809348011092CF
S11313303E01109249011092460110934501009319
S11313404401D0934301C0934201DF91CF911F9197
S11313500F9108950F931F93CF93DF93EC018B01AB
S11313608BB192E098279BB98091490181110BC000
S113137081E08093490180934A01DBD810924801AF
S113138010920C017DC080914A018823E9F01092EB
S11313904A018091AD01833061F0BA01C801B5DA28
S11313A081E080934801809347019BB189278BB9E1
S11313B002C056DECCD8109245011092440110921E
S11313C04301109242016BC080914701882341F090
S11313D02C173D070CF05DC0BA01C80196DA50C065
S11313E08091AD01833011F12C173D0744F1201792
S11313F031072CF1809142019091430182179307A8
S1131400F4F4809144019091450182179307BCF450
S113141010923D0181E080930C01109249011092D9
S1131420AD0110924701109246012AC080914801F3
S1131430811109C081E08093480180D821C0809146
S113144048018823E9F0C217D307D4F4021713071D
S1131450BCF480914201909143018217930784F474
S11314608091440190914501821793074CF41092A6
S11314703C011092490181E080930C0110924601D5
S11314801093450100934401D0934301C09342015A
S113149006C08091AD01833009F0A9CFC7CFDF9199
S11314A0CF911F910F9108950F931F93CF93DF93C3
S11314B0EC018B01E0911D01F0911E013196F09336
S11314C01E01E0931D0180910C01882361F036D840
S11314D01092480110920C0110921E0110921D01ED
S11314E0109249016DC08091490181110AC01E16F4
S11314F01F063CF481E08093490180934A0119D886
S11315005FC090914A019923C9F08091AD01823066
S113151041F4CE0141D981E0809348018093470191
S113152002C09EDD1BD81092450110924401109216
S113153043011092420110924A0153C09091470115
S1131540992331F0201731071CF4CE0125D938C076
S11315509091AD019230E9F5C217D3078CF50217CB
S1131560130774F524173507BCF510923C0181E08C
S113157080930C01109249011092AD011092470121
S1131580109246011DC08091480181110AC081E07A
S1131590809348010E949E0213C0809148018823D1
S11315A079F0C217D30764F4021713074CF41092AE
S11315B03C011092490181E080930C011092460194
S11315C01093450100934401D0934301C093420119
S11315D008C08111D8CFE1CF80914801882381F3DD
S11315E0E6CFDF91CF911F910F910895F894409128
S11315F0A00150E06091AE0170E08091A60190E0FE
S1131600789420913F01222321F028E230E0E4CDB8
S1131610089520913E01222321F028E230E027CED4
S1131620089520913D01222321F028E230E092CE5A
S1131630089520913C01222321F028E230E034CFA8
S1131640089520911D0130911E01233031055CF471
S11316502F5F3F4F30931E0120931D0181E38A9534
S1131660F1F700000895883291053CF46832710561
S11316700CF066C00C94B502089520914601211126
S11316800EC0423351050CF44FC081E080934601F3
S113169010921E0110921D010C949E02089588322E
S11316A091050CF052C0423351050CF058C0693218
S11316B071050CF43DC006C042335105A4F46832F0
S11316C071053CF428E230E0D2DD81E080933E01F4
S11316D00895693271053CF028E230E07DDD81E057
S11316E080933F01089543335105D4F06832710566
S11316F01CF521E020933D0128E230E02BCE089533
S1131700883291056CF44333510554F06932710504
S11317103CF028E230E0C8DE81E080933C0108958B
S11317209FDC0C94A7020895883291059CF4BFCFE6
S113173089329105CCF4E4CF883291053CF3F0CFA3
S1131740209146012111AFCF9CCF893291050CF035
S1131750B3CFE6CF893291050CF0B1CFD1CF893226
S113176091050CF0C0CFCCCF683271050CF0BBCF23
S1131770A9CF80911B0190911C0181309105E9F45E
S11317808091610190916201019701F584EB90E0F1
S113179090936C0180936B018AEA90E090936A01C4
S11317A08093690184EB87BD8091690188BDC7DAA4
S11317B010926201109261010895892B39F480918D
S11317C06001882319F01092600110CF0895ECEBAA
S11317D0F0E09081946A908390819923ECF7909142
S11317E0B900987F983029F084E98093BC0080E0A8
S11317F0089581608093BB0084E88093BC00ECEB87
S1131800F0E080818823ECF78091B900887F8034F0
S113181029F084E98093BC0080E00895ECEBF0E0CB
S113182080818468808380818823ECF78091BB0069
S113183094E99093BC0008952091250130912601EC
S11318402115310589F4282F22952F7030E030932B
S113185024012093230180938B0181E090E09093F5
S113186026018093250118C0409123015091240141
S11318704F5F5F4F241735075CF4F901E557FE4FBE
S113188080832F5F3F4F309326012093250104C0AE
S1131890F901E557FE4F8083809123019091240143
S11318A0019620912501309126012817390744F02B
S11318B081E080932B011092260110922501E89873
S11318C008951F920F920FB60F9211240BB60F9228
S11318D02F933F934F935F936F937F938F939F9334
S11318E0AF93BF93EF93FF9385E08A95F1F7369B0F
S11318F004C082E06CDFA0DF05C0379B03C086E034
S113190066DF9ADFFF91EF91BF91AF919F918F9125
S11319107F916F915F914F913F912F910F900BBEEB
S11319200F900FBE0F901F90189580912B01882364
S113193009F4A1C110922B0180918B0183FD0AC08F
S113194081E594E00197F1F700C000006BE871E0D5
S113195082E018DB80918B01E82FEF708E2F90E0EE
S1131960FC01EA5BFF4FEEC380918C018093AA01D6
S113197068C180918E01E7EAF1E080839181891743
S113198008F065C12091A901281728F05CC12091B5
S1131990A901821718F48093AE010FC0291730F003
S11319A0891738F42091A901921718F49093AE0185
S11319B004C02091A9012093AE01E7EAF1E09283EB
S11319C08183E3EAF1E080839181891708F047C1BC
S11319D02091A501281728F03EC12091A501821766
S11319E018F48093A0010FC0291730F0891738F438
S11319F02091A501921718F49093A00104C020919E
S1131A00A5012093A001E3EAF1E092838183E0E25F
S1131A10F1E080839181891708F025C1209122018A
S1131A20281728F024C120912201821718F48093EA
S1131A30A6010FC0291730F0891738F4209122012C
S1131A40921718F49093A60104C0209122012093C8
S1131A50A601E0E2F1E092838183F3C081E090E0AB
S1131A609093620180936101EBE8F1E0828190E060
S1131A70982F88272181820F911D90939B01809339
S1131A809A01838190E09093C4018093C301D9C0EB
S1131A9081E08093AD01D5C082E08093AD01D1C0D7
S1131AA083E08093AD01CDC081E0809376011092F4
S1131AB05F0118BC17BC109260019FEF2FE786E10D
S1131AC0915020408040E1F700C00000BAC010925D
S1131AD0560110925501B5C081E090E090935601F3
S1131AE080935501AEC082E090E0909356018093BC
S1131AF05501A7C084E090E090935601809355016E
S1131B00A0C083E090E0909356018093550199C062
S1131B1086E090E0909356018093550192C085E051
S1131B2090E090935601809355018BC080918C0175
S1131B30803F09F580916D0190916E01019729F420
S1131B4010926E0110926D017CC0E7E7F1E0AFEAFC
S1131B50B1E081E891E0119211921D921D92E81773
S1131B60F907C9F781E090E090936E0180936D01CD
S1131B701092AD0166C08F30F1F480916F019091A5
S1131B807001019759F4599A589810927001109263
S1131B906F0110926E0110926D0153C0589A5998BA
S1131BA081E090E09093700180936F0110926E0138
S1131BB010926D0146C081111BC096E39A95F1F70E
S1131BC00000EBE8F1E0828190E0909301018093C2
S1131BD00001238130E03093030120930201843B10
S1131BE0910509F4599A26E32A95F1F7000029C0D2
S1131BF08130B9F481E38A95F1F70000EBE8F1E074
S1131C00828190E09093120180931101838190E08E
S1131C10909314018093130191E39A95F1F70000D6
S1131C2010C0823071F4EBE8F1E0828190E090938F
S1131C306C0180936B01838190E090936A0180939F
S1131C406901E89A0895981708F4A1CEABCE9817C5
S1131C5008F49DCEAECE981708F4BFCEC9CE98171F
S1131C6008F4BBCECCCE981708F4DDCEEECE981790
S1131C7008F4D9CEE3CE089524D90E947600B6D8CC
S1131C80C2D881E06FD9789484EB90E090936C0192
S1131C9080936B018AEA90E090936A0180936901D2
S1131CA084EB87BD8091690188BD3FDE80915F012F
S1131CB08111FBCF80916F0190917001813091056A
S1131CC071F480916D0190916E018130910511F450
S1131CD050DDEBCF892B49F717BC18BCE6CF892B15
S1131CE021F7599AD9D9E1CF5058BB27AA270ED04A
S1131CF075C166D130F06BD120F031F49F3F11F4FF
S1131D001EF45BC10EF4E095E7FB51C1E92F77D1D6
S1131D1080F3BA17620773078407950718F071F404
S1131D209EF58FC10EF4E0950B2EBA2FA02D0B015A
S1131D30B90190010C01CA01A0011124FF27591B0C
S1131D4099F0593F50F4503E68F11A16F040A22F12
S1131D50232F342F4427585FF3CF46953795279583
S1131D60A795F0405395C9F77EF41F16BA0B620B82
S1131D70730B840BBAF09150A1F0FF0FBB1F661FC9
S1131D80771F881FC2F70EC0BA0F621F731F841F0C
S1131D9048F4879577956795B795F7959E3F08F032
S1131DA0B3CF9395880F08F09927EE0F97958795F1
S1131DB00895D9D008F481E008950CD00FC107D15B
S1131DC040F0FED030F021F45F3F19F0F0C0511123
S1131DD039C1F3C014D198F39923C9F35523B1F34E
S1131DE0951B550BBB27AA2762177307840738F086
S1131DF09F5F5F4F220F331F441FAA1FA9F333D0E5
S1131E000E2E3AF0E0E830D091505040E695001C98
S1131E10CAF729D0FE2F27D0660F771F881FBB1F54
S1131E20261737074807AB07B0E809F0BB0B802D2E
S1131E30BF01FF2793585F4F2AF09E3F510568F07A
S1131E40B6C000C15F3FECF3983EDCF3869577950E
S1131E506795B795F7959F5FC9F7880F911D96957C
S1131E60879597F90895E1E0660F771F881FBB1FD8
S1131E70621773078407BA0720F0621B730B840B85
S1131E80BA0BEE1F88F7E095089504D06894B11159
S1131E90D9C00895BCD088F09F5790F0B92F9927E6
S1131EA0B751A0F0D1F0660F771F881F991F1AF061
S1131EB0BA95C9F712C0B13081F0C3D0B1E008952A
S1131EC0C0C0672F782F8827B85F39F0B93FCCF3AB
S1131ED0869577956795B395D9F73EF49095809557
S1131EE0709561957F4F8F4F9F4F0895E89409C077
S1131EF097FB3EF490958095709561957F4F8F4F39
S1131F009F4F9923A9F0F92F96E9BB279395F6954E
S1131F10879577956795B795F111F8CFFAF4BB0FCC
S1131F2011F460FF1BC06F5F7F4F8F4F9F4F16C030
S1131F30882311F096E911C0772321F09EE8872FBA
S1131F40762F05C0662371F096E8862F70E060E076
S1131F502AF09A95660F771F881FDAF7880F9695EF
S1131F60879597F90895990F0008550FAA0BE0E893
S1131F70FEEF16161706E807F907C0F01216130647
S1131F80E407F50798F0621B730B840B950B39F487
S1131F900A2661F0232B242B252B21F408950A26ED
S1131FA009F4A140A6958FEF811D811D089597F92D
S1131FB09F6780E870E060E008959FEF80EC0895EB
S1131FC000240A9416161706180609060895002414
S1131FD00A9412161306140605060895092E03948E
S1131FE0000C11F4882352F0BB0F40F4BF2B11F402
S1131FF060FF04C06F5F7F4F8F4F9F4F089557FD61
S11320009058440F551F59F05F3F71F04795880F62
S113201097FB991F61F09F3F79F0879508951216F9
S113202013061406551FF2CF4695F1DF08C01616A5
S113203017061806991FF1CF869571056105089456
S11320400895E894BB2766277727CB0197F908956D
S11320508ADF08F48FEF08950BD0C0CFB1DF28F0EA
S1132060B6DF18F0952309F0A2CFA7CF1124EACF49
S1132070C6DFA0F3959FD1F3950F50E0551F629FE3
S1132080F001729FBB27F00DB11D639FAA27F00DCD
S1132090B11DAA1F649F6627B00DA11D661F829FF4
S11320A02227B00DA11D621F739FB00DA11D621FD9
S11320B0839FA00D611D221F749F3327A00D611DF6
S11320C0231F849F600D211D822F762F6A2F1124D8
S11320D09F5750408AF0E1F088234AF0EE0FFF1F2B
S11320E0BB1F661F771F881F91505040A9F79E3F62
S11320F0510570F05CCFA6CF5F3FECF3983EDCF364
S1132100869577956795B795F795E7959F5FC1F79E
S1132110FE2B880F911D9695879597F9089597FB47
S1132120072E16F4009406D077FD08D014D007FCCF
S113213005D03EF4909581959F4F089570956195D3
S11321407F4F0895EE0FFF1F0024001C0BBE079065
S1132150F691E02D0994AA1BBB1B51E107C0AA1FED
S1132160BB1FA617B70710F0A61BB70B881F991F34
S11321705A95A9F780959095BC01CD010895F894DE
S1052180FFCF8B
S1132182B400280003001E001E00140001040016FF
S113219200030037005D006400010001000A000032
S903016D8E
