S0130000737479726D6F64756C656E2E737265634B
S113000054C00000D5C3000093C20000B9C2000070
S113001069C0000067C0000065C0000063C0000044
S113002061C000005FC000005DC000005BC0000054
S113003059C0000043C2000055C0000053C0000076
S113004051C000004FC000004DC000004BC0000074
S113005049C0000047C0000045C0000043C0000084
S113006041C000003FC000003DC000003BC0000094
S113007039C0000037C0000035C0000033C00000A4
S113008031C000002FC000002DC000002A042F043E
S11300904B0457045B045F049B04630467046C040F
S11300A074047C0484048C04940411241FBECFEFD4
S11300B0D0E4DEBFCDBF11E0A0E0B1E0ECE3FAE0B4
S11300C000E00BBF02C007900D92A434B107D9F72A
S11300D021E0A4E4B1E001C01D92AA38B207E1F71F
S11300E02CD4AAC48DCF0895A0917B01B0917C013A
S11300F095E040E050E060E070E080E09D01042E77
S113010002C0359527950A94E2F7E22FE370E99F40
S1130110800D112423703327620F731F4E5F5F4FCE
S113012091504631510551F7082E000C990B54D4C7
S1130130862F08958091590190915A01009729F4CE
S11301402D982E9817BC18BC08958130910549F458
S11301502D982E988091630187BD8091610188BD9F
S113016008958230910559F485B1806685B98091EE
S113017063018D5087BD8091610188BD08958330EE
S1130180910581F42D982E988091630187BD20916B
S1130190610190916201822F63E070E01DD4261BFF
S11301A028BD08958430910581F42D982E982091CE
S11301B0630190916401822F63E070E00DD4261BEB
S11301C027BD8091610188BD08958530910549F46A
S11301D02D982E9A8091630187BD8091610188BD1D
S11301E00895069749F42E982D9A8091630187BD4E
S11301F08091610188BD089510925A0110925901AD
S11302000895F89480917D0190917E012091690177
S113021030916A017894821B930B909387018093A9
S113022086012091570130915801AC01421B530BB8
S1130230509356014093550120914201309143015E
S1130240829FB001839F700D929F700D1124E091E5
S11302504001F09141014E9F90014F9F300D5E9FF0
S1130260300D1124260F371F30938401209383010E
S1130270909358018093570187B5869590E028178D
S113028039073CF087B5869590E09093840180937C
S1130290830188B590E09195819591090AF40196BE
S11302A09595879520918301309184018217930756
S11302B06CF088B590E09195819591090AF40196C6
S11302C09595879590938401809383018091830110
S11302D0909184011816190644F490916301981BB7
S11302E097BD8091610188BD0895992354F480914C
S11302F0630187BD9091830180916101890F88BD5D
S11303000895892B31F48091630187BD8091610147
S113031088BD0895F89420914B0130914C01789454
S11303208091530190915401821B930B909352013D
S11303308093510120914D0130914E01AC01421B3B
S1130340530B509356014093550120913E01309137
S11303503F01829FB001839F700D929F700D112405
S1130360E0913C01F0913D014E9F90014F9F300D73
S11303705E9F300D1124260F371F309350012093B8
S11303804F0190934E0180934D0140916301509130
S11303906401CA01880F991F840F951F99230CF4D7
S11303A003969595879595958795821793072CF4D1
S11303B09093500180934F0126C0809161019091E8
S11303C06201BC01660F771F680F791F772314F44D
S11303D06D5F7F4F759567957595679526173707F8
S11303E094F49C01220F331F820F931F91958195E2
S11303F091090AF403969595879595958795909319
S1130400500180934F0180914F01909150019923A5
S11304102CF4480F47BD8091610188BD20914F01A4
S113042030915001121613063CF480916101821B35
S113043088BD8091630187BD80914F0190915001E7
S1130440892B31F48091630187BD8091610188BD5E
S113045008954ADE082E000C990B90934C0180936A
S11304604B0158CF089580915B0190915C010197F5
S113047011F4EFCF0895C5CE089584B5836A84BD81
S113048017BC18BC85B5836085BD88E784B985B180
S113049015B8089583E08AB9E1E8F0E080818D60C1
S11304A0808380EA95E09093890080938800EFE64A
S11304B0F0E0808182608083B19A08951F920F9248
S11304C00FB60F9211242F933F938F939F9381E044
S11304D090E09093600180935F0180914801909136
S11304E049010196909349018093480120915D014F
S11304F030915E012F5F3F4F30935E0120935D0189
S11305004D9724F010924901109248019F918F91C8
S11305103F912F910F900FBE0F901F9018958DB3A0
S113052086608DBBE9E6F0E080818862808308956F
S11305301F920F920FB60F9211248F939F93809165
S1130540670190916801019739F410926801109243
S11305506701599A58980CC010926601109265016F
S113056081E090E09093680180936701589A5998CC
S1130570E19A9F918F910F900FBE0F901F90189545
S11305801F920F920FB60F9211248F939F93809115
S1130590650190916601892B39F481E090E0909394
S11305A066018093650104C0109266011092650192
S11305B0E29A9F918F910F900FBE0F901F90189504
S11305C0882369F03E983F98E89AE9E6F0E0808154
S11305D08360808380E18093B8001092B90008950D
S11305E08F929F92AF92BF92CF92DF92EF92FF923F
S11305F00F931F93CF93DF93EB01088102950F7044
S113060010E04B016894EE24E3F8F12C40E050E054
S1130610ECEBF0E00F2EF4EADF2EF02DA9EBB0E0C6
S11306208E7FC82E6BEB70E084E86894AA24A4F84B
S1130630B12CD08290819923ECF72C91287F30E063
S11306402E153F0569F5EB01C882808390819923BB
S1130650ECF79C91987F983129F084E98093BC0051
S113066080E01FC0E40199914E01EB0198838083DF
S113067090819923ECF79C91987F983229F084E932
S11306808093BC0080E00DC04F5F5F4FEA2CFB2CD1
S11306900417150774F684E98093BC0081E001C057
S11306A080E0DF91CF911F910F91FF90EF90DF9049
S11306B0CF90BF90AF909F908F900895ECEBF0E0B7
S11306C09081946A908390819923ECF79091B9007A
S11306D0987F983029F084E98093BC0080E00895E5
S11306E081608093BB0084E88093BC00ECEBF0E075
S11306F080818823ECF78091B900887F803429F0C9
S113070084E98093BC0080E00895ECEBF0E0808104
S11307108468808380818823ECF78091BB0094E90E
S11307209093BC0008952091460130914701211512
S1130730310589F4282F22952F7030E0309345013C
S11307402093440180936C0181E090E090934701F1
S11307508093460118C040914401509145014F5F78
S11307605F4F241735075CF4F901E459FE4F808389
S11307702F5F3F4F309347012093460104C0F90196
S1130780E459FE4F80838091440190914501019684
S113079020914601309147012817390744F081E040
S11307A080934A011092470110924601E8980895F7
S11307B01F920F920FB60F9211240BB60F922F9324
S11307C03F934F935F936F937F938F939F93AF93D5
S11307D0BF93EF93FF930000369B04C082E06EDF6B
S11307E0A2DF05C0379B03C086E068DF9CDFFF9172
S11307F0EF91BF91AF919F918F917F916F915F9195
S11308004F913F912F910F900BBE0F900FBE0F9001
S11308101F90189580914A01882309F48DC0109285
S11308204A0180916C0183FD07C084E68A95F1F743
S11308306CE671E082E0D4DE20916C01E22FEF706F
S11308408E2F90E08F30910508F075C0FC01EA5BB3
S1130850FF4FD5C080916D01809385016CC0ECE69B
S1130860F1E0838190E090937E0180937D01228169
S113087020937F01218130E030936A012093690144
S11308808531910514F0589A56C04F9714F0589832
S113089052C0589850C080916D0190E0982F8827DD
S11308A0820F911D90937C0180937B0144C081E071
S11308B08093880140C082E0809388013CC083E03B
S11308C08093880138C081E080936B0134C010921A
S11308D05A01109259012FC081E090E090935A017F
S11308E080935901589A27C0589A82E090E09093D7
S11308F05A01809359011FC0589A84E090E0909364
S11309005A018093590117C0589A83E090E090935C
S11309105A01809359010FC0589A86E090E0909351
S11309205A018093590107C0589A85E090E090934A
S11309305A0180935901E89A0895F1DDD4DB9DDDD5
S1130940A9DD81E03DDE789482E390E09093640138
S1130950809363018DE290E0909362018093610142
S113096082E387BD8091610188BD54DF8091670176
S1130970909168018130910559F52D982E98E09158
S11309804801F0914901EE0FFF1FE050FF4F8081B5
S1130990918190934C0180934B0180915F019091E0
S11309A06001019761F4809165019091660101975E
S11309B031F459DD1092600110925F01D6CF80911D
S11309C0650190916601892B81F617BC18BCCDCFC7
S11309D0892B59F6AFDBC9CF97FB072E16F4009489
S11309E006D077FD08D014D007FC05D03EF49095CE
S11309F081959F4F0895709561957F4F0895EE0FEF
S1130A00FF1F0024001C0BBE0790F691E02D0994F3
S1130A10AA1BBB1B51E107C0AA1FBB1FA617B70720
S1130A2010F0A61BB70B881F991F5A95A9F780953C
S10F0A309095BC01CD010895F894FFCF0F
S1130A3CFBFFFBFFFBFFFBFFFDFFFDFFFBFFFDFFD0
S1130A4CFBFFFDFFFEFFFFFF0000000000000000A5
S1130A5C0000000000000000000000000000000086
S1130A6C0000050004000300020000000A00460018
S1070A7C010002006F
S903016596
