S0130000737479726D6F64756C656E2E737265634B
S113000045C000000AC300005DC200007FC20000BA
S11300105AC0000058C0000056C0000054C0000080
S113002052C0000050C000004EC000004CC0000090
S11300304AC0000001C2000046C0000044C00000E5
S113004042C0000040C000003EC000003CC00000B0
S11300503AC0000038C0000036C0000034C00000C0
S113006032C0000030C000002EC000002CC00000D0
S11300702AC0000028C0000026C0000024C00000E0
S113008022C0000020C000001EC0000011241FBEBA
S1130090CFEFD0E4DEBFCDBF11E0A0E0B1E0ECE5EE
S11300A0F7E000E00BBF02C007900D92A834B1073F
S11300B0D9F721E0A8E4B1E001C01D92A139B2074B
S11300C0E1F7DCD249C39CCF089580914C01909113
S11300D04D0105970CF048C0809170019091710119
S11300E0009721F415B817BC18BC08958130910508
S11300F031F485B115B884E687BD88BD0895823092
S1130100910539F485B1806685B984E687BD88BDDB
S113011008958330910539F485B115B884E687BD17
S113012082E388BD08958430910539F485B185B999
S113013082E387BD84E688BD08958530910539F44E
S113014085B115B82E9A82E387BD88BD08950697B8
S113015031F42E982D9A82E387BD88BD08951092BC
S1130160710110927001089515B817BC18BC089558
S1130170F8948091870190918801209174013091C5
S113018075017894821B930B90938F0180938E0159
S113019020916E0130916F01AC01421B530B5093BF
S11301A06D0140936C012091440130914501829F7F
S11301B0B001839F700D929F700D1124E091420154
S11301C0F09143014E9F90014F9F300D5E9F300D83
S11301D01124260F371F30938A01209389019093AD
S11301E06F0180936E011216130644F48091560138
S11301F0821B87BD8091540188BD0895332354F434
S11302008091560187BD9091890180915401890F95
S113021088BD0895232B31F48091560187BD8091C8
S1130220540188BD0895F894E0916201F09163014E
S1130230789420916A0130916B012E1B3F0B30930F
S11302406901209368018091640190916501A9017D
S1130250481B590BCA016AE070E057D270936D01D4
S113026060936C018091400190914101289FA0010D
S1130270299F500D389F500D1124A0913E01B0913B
S11302803F016A9FC0016B9F900D7A9F900D1124CE
S1130290840F951F909367018093660130936501E5
S11302A02093640199233CF490915601890F87BDF2
S11302B08091540188BD2091660130916701121626
S11302C013063CF480915401821B88BD8091560131
S11302D087BDEF2B31F48091560187BD8091540185
S11302E088BD089580916001811117C080913C01FF
S11302F090913D0140975CF085B115B8809156010D
S113030087BD8091540188BD10925F01089581E0FA
S11303108093600180936101089580916101882335
S1130320D1F080915D0190915E01019749F42E987E
S11303302D9A8091560187BD8091540188BD08C0D3
S11303402E9A2D988091560187BD8091540188BDC5
S1130350109261010895809150019091510101978B
S1130360A1F481E080935F0110924F0110924E013D
S1130370109251011092500185B115B88091560127
S113038087BD8091540188BD089580915F018823C1
S113039061F080914E0190914F01059734F01092D5
S11303A073011092720110926001089580914601C8
S11303B090914701019711F436CF0895809172010D
S11303C090917301019709F48DDFD2CE089584B51D
S11303D0836A84BD17BC18BC85B5836085BD88E776
S11303E084B985B115B80895109271011092700105
S11303F010925B0110925A01109259011092580107
S1130400109253011092520184B78D7F84BF0895D6
S113041083E08AB9E1E8F0E080818D60808380EA3E
S113042095E09093890080938800EFE6F0E0808166
S113043082608083B19A08951F920F920FB60F9233
S113044011242F933F938F939F9381E090E0909397
S113045053018093520180914C0190914D018A3057
S113046091052CF4019690934D0180934C01809159
S11304704A0190914B01019690934B0180934A015C
S113048020914E0130914F012F5F3F4F30934F0128
S113049020934E014D9724F010924B0110924A0183
S11304A09F918F913F912F910F900FBE0F901F90AE
S11304B018958DB386608DBBE9E6F0E08081886293
S11304C0808308951F920F920FB60F9211248F9379
S11304D09F9380915A0190915B01019739F4109296
S11304E05B0110925A01599A589808C081E090E033
S11304F090935B0180935A01589A5998E19A9F917D
S11305008F910F900FBE0F901F9018951F920F920E
S11305100FB60F9211248F939F938091580190915D
S11305205901892B39F481E090E09093590180932B
S1130530580104C01092590110925801E29A9F91F7
S11305408F910F900FBE0F901F901895882369F01C
S11305503E983F98E89AE9E6F0E0808183608083E2
S113056080E18093B8001092B9000895ECEBF0E0BC
S11305709081946A908390819923ECF79091B900CB
S1130580987F983021F084E98093BC003BC081605F
S11305908093BB0084E88093BC00ECEBF0E08081A6
S11305A08823ECF78091B900887F803421F084E9B6
S11305B08093BC0027C0ECEBF0E0808184688083EA
S11305C080818823ECF78091B900887F803521F001
S11305D084E98093BC0016C0ABEBB0E0EC91E295EB
S11305E0EF70F0E0E081F0E08C918C91808380E802
S11305F08093BC00ECEBF0E080818823ECF784E985
S11306008093BC0080E00895109249011092480143
S113061081E080935C01E89808951F920F920FB6D1
S11306200F9211240BB60F922F933F934F935F9326
S11306306F937F938F939F93AF93BF93EF93FF93A6
S1130640309B04C082E092DFDFDF05C0309B03C033
S113065086E08CDFD9DFFF91EF91BF91AF919F913D
S11306608F917F916F915F914F913F912F910F9057
S11306700BBE0F900FBE0F901F9018951ADF24DD4C
S1130680A6DEC6DE81E062DF78948CE390E090938E
S1130690570180935601909355018093540187BD6F
S11306A08091540188BD04B601FE02C09DDEFBCFDB
S11306B08091580190915901019721F580915A0137
S11306C090915B010197E1F485B115B8E0914A017D
S11306D0F0914B01EE0FFF1FE050FF4F808191819D
S11306E09093630180936201809152019091530130
S11306F00197C9F65BDE1092530110925201D3CFD9
S1130700E4DCD1CF17BC18BCCECF97FB072E16F470
S1130710009406D077FD08D00BD007FC05D03EF43A
S1130720909581959F4F0895709561957F4F089599
S1130730AA1BBB1B51E107C0AA1FBB1FA617B70703
S113074010F0A61BB70B881F991F5A95A9F780951F
S10F07509095BC01CD010895F894FFCFF2
S113075CFBFFFBFFFBFFFBFFFDFFFDFFFBFFFDFFB3
S113076CFBFFFDFFFEFFFFFF000000000000000088
S113077C0000000000000000000000000000000069
S113078C0000050004000300020000000F00040038
S10B079C0A0001000200010043
S9030158A3
