:1000000054C000002EC40000ECC2000012C3000067
:1000100069C0000067C0000065C0000063C0000048
:1000200061C000005FC000005DC000005BC0000058
:1000300059C000009CC2000055C0000053C0000021
:1000400051C000004FC000004DC000004BC0000078
:1000500049C0000047C0000045C0000043C0000088
:1000600041C000003FC000003DC000003BC0000098
:1000700039C0000037C0000035C0000033C00000A8
:1000800031C000002FC000002DC000008304880490
:100090009A04A604AA04AE04EA04B204B604BB049B
:1000A000C304CB04D304DB04E30411241FBECFEF4D
:1000B000D0E4DEBFCDBF11E0A0E0B1E0EEEBFAE0AE
:1000C00000E00BBF02C007900D92AA30B107D9F72C
:1000D00021E0AAE0B1E001C01D92AB35B207E1F723
:1000E0007BD4EBC48DCF0895A0914C01B0914D010C
:1000F00095E040E050E060E070E080E09D01042E7B
:1001000002C0359527950A94E2F7E22FE370E99F44
:10011000800D112423703327620F731F4E5F5F4FD2
:1001200091504631510551F7082E000C990B95D48A
:10013000862F08958091260190912701009729F438
:100140002D982E9817BC18BC08958130910549F45C
:100150002D982E988091340187BD8091320188BD01
:1001600008958230910559F485B1806685B98091F2
:1001700034018D5087BD8091320188BD0895833050
:10018000910581F42D982E988091340187BD20919E
:10019000320190913301822F63E070E05ED4261B20
:1001A00028BD08958430910581F42D982E982091D2
:1001B000340190913501822F63E070E04ED4261B0C
:1001C00027BD8091320188BD08958530910549F49D
:1001D0002D982E9A8091340187BD8091320188BD7F
:1001E0000895069749F42E982D9A8091340187BD81
:1001F0008091320188BD0895109227011092260146
:100200000895F89480914E0190914F0120913A0108
:1002100030913B017894821B930B9093580180930B
:1002200057012091240130912501AC01421B530B51
:10023000509323014093220120910801309109013C
:10024000829FB001839F700D929F700D1124E091E9
:100250000601F09107014E9F90014F9F300D5E9F68
:10026000300D1124260F371F309355012093540170
:10027000909325018093240187B5869590E02817F7
:1002800039073CF087B5869590E0909355018093AF
:10029000540188B590E09195819591090AF40196F1
:1002A00095958795209154013091550182179307B8
:1002B0006CF088B590E09195819591090AF40196CA
:1002C00095958795909355018093540180915401A1
:1002D000909155011816190644F490913401981B19
:1002E00097BD8091320188BD0895992354F480917F
:1002F000340187BD9091540180913201890F88BDEE
:100300000895892B31F48091340187BD80913201A9
:1003100088BD089586E090E09093170180931601C0
:10032000F8948091180190911901789420912001FE
:1003300030912101281B390B30931F0120931E019E
:1003400080911A0190911B01A901481B590B5093F0
:100350002301409322018091040190910501289F7F
:10036000B001299F700D389F700D1124E09102019A
:10037000F09103014E9FC0014F9F900D5E9F900D25
:100380001124860F971F609116017091170165D394
:1003900070931D0160931C0130931B0120931A017F
:1003A00077233CF480913401680F67BD809132015E
:1003B00088BD20911C0130911D01121613063CF4DA
:1003C00080913201821B88BD8091340187BD80916C
:1003D0001C0190911D0199231CF49195819591091F
:1003E00084309105BCF42091140130911501332320
:1003F0001CF43195219531092D3031055CF4243000
:10040000310514F00D9734F48091340187BD80914B
:10041000320188BD80911C0190911D0190931501BE
:1004200080931401089560DE082E000C990B9093C0
:100430001901809318016ECF08952E982D9A8091FE
:10044000340187BD8091320188BD08952E9A2D9880
:100450008091340187BD8091320188BD08952D9827
:100460008091340187BD8091320188BD08958091CB
:100470001201811110C080910001909101014097FB
:1004800024F0EDDF10921101089581E080931201B4
:1004900080931301089580911301882391F0809136
:1004A0003A0190913B01CA9714F0C7DF07C08091D1
:1004B0004E0190914F01CA970CF0C8DF10921301C2
:1004C000089580912E0190912F01019769F481E0A8
:1004D0008093110110922D0110922C0110922F0186
:1004E00010922E01BCCF089580911101882361F0F4
:1004F00080912C0190912D01059734F010922B01E1
:1005000010922A0110921201089580912801909171
:100510002901019711F487CF089580912A019091C4
:100520002B01019709F4A3DF6CCE089584B5836A8B
:1005300084BD17BC18BC85B5836085BD88E784B9C8
:1005400085B115B8089583E08AB9E1E8F0E08081CB
:100550008D60808380EA95E0909389008093880085
:10056000EFE6F0E0808182608083B19A08951F9267
:100570000F920FB60F9211242F933F938F939F9357
:1005800081E090E0909331018093300180910E01E1
:1005900090910F01019690930F0180930E0120918D
:1005A0002C0130912D012F5F3F4F30932D0120936F
:1005B0002C014D9724F010920F0110920E019F9183
:1005C0008F913F912F910F900FBE0F901F90189514
:1005D0008DB386608DBBE9E6F0E080818862808320
:1005E00008951F920F920FB60F9211248F939F932D
:1005F0008091380190913901019739F410923901B5
:1006000010923801599A58980CC0109237011092E4
:10061000360181E090E09093390180933801589A37
:100620005998E19A9F918F910F900FBE0F901F9054
:1006300018951F920F920FB60F9211248F939F93CC
:100640008091360190913701892B39F481E090E057
:10065000909337018093360104C0109237011092B5
:100660003601E29A9F918F910F900FBE0F901F90CD
:100670001895882369F03E983F98E89AE9E6F0E0FB
:1006800080818360808380E18093B8001092B900FC
:1006900008958F929F92AF92BF92CF92DF92EF9286
:1006A000FF920F931F93CF93DF93EB010881029585
:1006B0000F7010E04B016894EE24E3F8F12C40E059
:1006C00050E0ECEBF0E00F2EF4EADF2EF02DA9EB7A
:1006D000B0E08E7FC82E6BEB70E084E86894AA24AB
:1006E000A4F8B12CD08290819923ECF72C91287F2B
:1006F00030E02E153F0569F5EB01C88280839081BB
:100700009923ECF79C91987F983129F084E98093A4
:10071000BC0080E01FC0E40199914E01EB01988379
:10072000808390819923ECF79C91987F983229F0EF
:1007300084E98093BC0080E00DC04F5F5F4FEA2CDE
:10074000FB2C0417150774F684E98093BC0081E044
:1007500001C080E0DF91CF911F910F91FF90EF904A
:10076000DF90CF90BF90AF909F908F900895ECEB6B
:10077000F0E09081946A908390819923ECF79091B6
:10078000B900987F983029F084E98093BC0080E01C
:10079000089581608093BB0084E88093BC00ECEBFB
:1007A000F0E080818823ECF78091B900887F803465
:1007B00029F084E98093BC0080E00895ECEBF0E040
:1007C00080818468808380818823ECF78091BB00DE
:1007D00094E99093BC00089520910C0130910D0193
:1007E0002115310589F4282F22952F7030E03093A0
:1007F0000B0120930A0180933D0181E090E09093EA
:100800000D0180930C0118C040910A0150910B0119
:100810004F5F5F4F241735075CF4F901E35CFE4F2F
:1008200080832F5F3F4F30930D0120930C0104C054
:10083000F901E35CFE4F808380910A0190910B01E6
:10084000019620910C0130910D012817390744F0D1
:1008500081E08093100110920D0110920C01E89834
:1008600008951F920F920FB60F9211240BB60F929C
:100870002F933F934F935F936F937F938F939F93A8
:10088000AF93BF93EF93FF930000369B04C082E0C9
:100890006EDFA2DF05C0379B03C086E068DF9CDF08
:1008A000FF91EF91BF91AF919F918F917F916F9148
:1008B0005F914F913F912F910F900BBE0F900FBE04
:1008C0000F901F90189580911001882309F483C020
:1008D0001092100180913D0183FD07C084E68A9546
:1008E000F1F76DE371E082E0D4DE20913D01E22F6B
:1008F000EF708E2F90E08F30910508F06BC0FC01F7
:10090000EA5BFF4FBDC080913E018093560162C0FB
:10091000EDE3F1E0838190E090934F0180934E01ED
:10092000828180935001818190E090933B0180937C
:100930003A0150C080913E0190E0982F8827820FA5
:10094000911D90934D0180934C0144C081E08093B0
:10095000590140C082E0809359013CC083E08093FC
:10096000590138C081E080933C0134C010922701C6
:10097000109226012FC081E090E090932701809390
:100980002601589A27C0589A82E090E09093270158
:10099000809326011FC0589A84E090E0909327012D
:1009A0008093260117C0589A83E090E09093270126
:1009B000809326010FC0589A86E090E0909327011B
:1009C0008093260107C0589A85E090E09093270114
:1009D00080932601E89A0895FBDD85DBA7DDB3DD72
:1009E00081E047DE789482E390E090933501809334
:1009F00034018DE290E0909333018093320182E3E1
:100A000087BD8091320188BD5EDF80913801909171
:100A1000390181309105E9F42D982E9880913001AB
:100A200090913101019761F48091360190913701E5
:100A3000019731F46ADD1092310110923001E4CF58
:100A40008091360190913701892BF1F617BC18BCC3
:100A5000DBCF892BC9F66EDBD7CF97FB072E16F4B9
:100A6000009406D077FD08D014D007FC05D03EF4E2
:100A7000909581959F4F0895709561957F4F08954A
:100A8000EE0FFF1F0024001C0BBE0790F691E02D17
:100A90000994AA1BBB1B51E107C0AA1FBB1FA617C5
:100AA000B70710F0A61BB70B881F991F5A95A9F717
:0E0AB00080959095BC01CD010895F894FFCF7C
:0A0ABE000F001400360001000200D2
:040000050080013640
:00000001FF
