:1000000055C000007EC7000015C400003BC40000BE
:100010006CC000006AC0000068C0000066C000003C
:1000200064C0000062C0000060C000005EC000004C
:100030005CC00000B6C3000058C0000056C00000FD
:1000400054C0000052C0000050C000004EC000006C
:100050004CC000004AC0000048C0000046C000007C
:1000600044C0000042C0000040C000003EC000008C
:100070003CC000003AC0000038C0000036C000009C
:1000800034C0000032C0000030C00000CF07D407E9
:10009000E007FA07FE0702080608A7081008150877
:1000A0001C0823082A08310838083F0811241FBEFD
:1000B000CFEFD0E4DEBFCDBF11E0A0E0B1E0ECE1D6
:1000C000F6E100E00BBF02C007900D92AE30B10721
:1000D000D9F721E0AEE0B1E001C01D92AC37B20724
:1000E000E1F70E94A9080C940C0B8ACF08952F9277
:1000F0003F924F925F926F927F928F929F92AF92B8
:10010000BF92CF92DF92EF92FF920F931F93CF9304
:10011000DF931092380110923701F89480905F01BC
:100120009090600120907001309071017894C0909F
:100130003701D090380105E010E0C0E0D0E0412C5C
:10014000512C32010F2EF5E0AF2EB12CF02DC50150
:10015000801B910B089714F574010C2E02C0F594C6
:10016000E7940A94E2F783E0E822FF240E9DB001B1
:100170000F9D700D1E9D700D1124072E000C880B15
:10018000990B0E94ED099B01AC01C301B2010E94D1
:10019000EE082B013C01CE0CDF1C22C0CE014097A3
:1001A000710102C0F594E7948A95E2F783E0E822B2
:1001B000FF240E9DB0010F9D700D1E9D700D11242A
:1001C000072E000C880B990B0E94ED099B01AC01D6
:1001D000C301B2010E94EE082B013C01CE0CDF1CD2
:1001E000229601501109C631D10509F0B0CFD09245
:1001F0003801C0923701C114D10469F0B601DD0C99
:10020000880B990B0E94ED099B01AC01C301B2015F
:100210000E94520903C060E070E0CB010E94BA095D
:10022000CB01DF91CF911F910F91FF90EF90DF9065
:10023000CF90BF90AF909F908F907F906F905F9086
:100240004F903F902F900895CF93DF93F894209193
:100250005F0130916001409170015091710178947B
:1002600080916C01882309F493C0609135017091ED
:100270003601672B61F41092400110923F0181E03A
:1002800090E0909336018093350180E088C06091C2
:100290003F0170914001653171050CF06FC08130F4
:1002A00069F5A0EFBFEF6BEFE0E0F0E080E08111D7
:1002B0001FC0E830F10584F4CF01880F991FE901D0
:1002C00002C0D595C7958A95E2F7CE0186958170D3
:1002D000689F802D11240CC0CA010A2E02C095957A
:1002E00087950A94E2F786958170689F802D112486
:1002F00031966F5F12966630D1F651C0823069F444
:10030000207F3093600120935F0143705527509305
:10031000710140937001EBDE42C08330A9F5A6E085
:10032000B0E0E6E06BE070E080E081111FC0683073
:10033000710584F4CB01880F991FE90102C0D5959E
:10034000C7958A95E2F7CE0186958170E89F802D4A
:1003500011240CC0CA010A2E02C0959587950A94F3
:10036000E2F786958170E89F802D11246150710914
:10037000E150129761157105C1F611C01092360156
:100380001092350180E00BC080E009C080E007C01A
:1003900080913F01909140014597C4F3EFCFDF91E9
:1003A000CF91089580917001909171010A973CF06E
:1003B00080915F01909160018A3A9A4034F49BB138
:1003C00082E089278BB980E0089581E00895EADF13
:1003D000882391F08091140190911501892B61F48B
:1003E0001092400110923F0181E090E0909315013E
:1003F0008093140180E00895D5DF8823A1F08091D7
:10040000140190911501019771F480913F01909131
:100410004001449744F482E090E09093150180936A
:10042000140180E00895BEDF882399F02091140123
:10043000309115012230310561F420913F01309156
:100440004001243131055CF4109215011092140121
:10045000089580913F0190914001449734F01092AB
:1004600015011092140180E00895089580916801AB
:10047000893108F580916D018931E8F4809133016B
:1004800090913401892B59F481E090E090933401EC
:100490008093330110923E0110923D0108958091A6
:1004A0003D0190913E010A9764F010923401109240
:1004B000330181E00895109213011092120180E03F
:1004C000089580E008952D982E9A86E487BD8CE3E8
:1004D00088BD81E08093390108952D9A2E9886E495
:1004E00087BD8CE388BD81E08093390108954F92E8
:1004F0005F926F927F928F929F92AF92BF92CF92B4
:10050000DF92EF92FF92F8946091170170911801B9
:100510008091190190911A012DD77894209125018D
:1005200030912601A901461B570BBA01072E000C7A
:10053000880B990B52D76B017C016093210170935A
:100540002201809323019093240120911B0130917B
:100550001C0140911D0150911E013FD64B015C01D1
:100560006093290170932A0180932B0190932C01B1
:100570006091020170910301072E000C880B990B0A
:100580002CD79B01AC01C701B601B3D72B013C01AD
:100590006091000170910101072E000C880B990BEE
:1005A0001CD79B01AC01C501B401A3D79B01AC01D1
:1005B000C301B20113D6DED69B0170932001609374
:1005C0001F01C0921B01D0921C01E0921D01F0920C
:1005D0001E014091370150913801452BB9F42E9AF4
:1005E0002D9A809145019091460199230CF4019632
:1005F0009595879587BD80914301909144019923FA
:100600000CF401969595879588BD5BC077236CF5B2
:100610009B01772324F422273327261B370B809155
:10062000430190914401281739079CF02D9A2E9888
:100630008091450187BD80911F01909120019923F0
:100640001CF491958195910990914301891B88BD76
:1006500038C02E982D988091450187BD90911F013B
:1006600080914301890F88BD2CC016161706FCF433
:1006700080914501909146012817390764F02E9A20
:100680002D988091430188BD80911F019091450173
:10069000891B87BD16C02E982D988091430188BD77
:1006A0008091450190911F01891B87BD0AC0672B6E
:1006B00041F42E982D988091450187BD809143018A
:1006C00088BDFF90EF90DF90CF90BF90AF909F904C
:1006D0008F907F906F905F904F900895809165010B
:1006E000823238F41092480110924701599A589A70
:1006F000089580916C018150833088F4A5DD682FC6
:10070000880F770B880B990B68D66093170170934D
:1007100018018093190190931A01E9CE089557DECC
:10072000882329F0109248011092470108959EDE17
:10073000882331F0589A1092480110924701089589
:10074000D6DCBC01990F880B990B47D66093170133
:10075000709318018093190190931A01C8CE0895DF
:1007600084B5836A84BD17BC18BC85B5836085BD1C
:1007700088E784B985B115B8089583E08AB9E1E8BE
:10078000F0E080818D60808380EA95E0909389001D
:1007900080938800EFE6F0E0808182608083B19AE8
:1007A00008951F920F920FB60F9211248F939F936B
:1007B00081E080933A0180913D0190913E01019644
:1007C000823391052CF490933E0180933D0106C045
:1007D00082E390E090933E0180933D0180913F0140
:1007E000909140010196823391052CF49093400141
:1007F00080933F0106C082E390E090934001809394
:100800003F018091410190914201019690934201F4
:10081000809341019F918F910F900FBE0F901F9079
:1008200018958DB386608DBBE9E6F0E08081886223
:10083000808308951F920F920FB60F9211248F9309
:100840009F938091490190914A01019739F4109248
:100850004A0110924901599A58980CC010924801C7
:100860001092470181E090E090934A018093490102
:10087000589A5998E19A9F918F910F900FBE0F90BF
:100880001F9018951F920F920FB60F9211248F93FD
:100890009F938091470190914801892B39F481E021
:1008A00090E0909348018093470104C01092480162
:1008B00010924701E29A9F918F910F900FBE0F9077
:1008C0001F901895882369F03E983F98E89AE9E6CA
:1008D000F0E080818360808380E18093B800109293
:1008E000B90008958F929F92AF92BF92CF92DF92FC
:1008F000EF92FF920F931F93CF93DF93EB01088149
:1009000002950F7010E04B016894EE24E3F8F12C8F
:1009100040E050E0ECEBF0E00F2EF4EADF2EF02D9B
:10092000A9EBB0E08E7FC82E6BEB70E084E8689492
:10093000AA24A4F8B12CD08290819923ECF72C91B1
:10094000287F30E02E153F0569F5EB01C8828083D2
:1009500090819923ECF79C91987F983129F084E954
:100960008093BC0080E01FC0E40199914E01EB012F
:100970009883808390819923ECF79C91987F98329B
:1009800029F084E98093BC0080E00DC04F5F5F4F89
:10099000EA2CFB2C0417150774F684E98093BC003D
:1009A00081E001C080E0DF91CF911F910F91FF9016
:1009B000EF90DF90CF90BF90AF909F908F90089571
:1009C000CF93DF931F92CDB7DEB787E08983BE0157
:1009D0006F5F7F4F86E086DF81E08093390187EA91
:1009E00091E60197F1F700C000000F90DF91CF91E1
:1009F000089520912F01309130012130310539F4D3
:100A000086E090E0909332018093310165C080913F
:100A10002D0190912E01019739F485E090E090939B
:100A20003201809331014EC08091310190913201A9
:100A3000009729F42E982D9817BC18BC0895813082
:100A4000910549F42E982D988091450187BD80919C
:100A5000430188BD08958230910559F485B18066BF
:100A600085B9809145018D5087BD8091430188BD36
:100A700008958330910581F42E982D988091450139
:100A800087BD2091430190914401822F63E070E083
:100A900093D5261B28BD08958430910581F42E98A6
:100AA0002D982091450190914601822F63E070E0DE
:100AB00083D5261B27BD8091430188BD08958530CD
:100AC000910519F47DDF09CD08950697D9F4232BFC
:100AD00019F476DFF8CC089580913901811109C0AD
:100AE000109232011092310110922E0110922D01BC
:100AF00008952D982E9A8091450187BD80914301DC
:100B000088BD0895109232011092310108952F92FC
:100B10003F924F925F926F927F928F929F92AF928D
:100B2000BF92CF92DF92EF92FF920F931F93CF93DA
:100B3000DF93CDB7DEB72A970FB6F894DEBF0FBEAE
:100B4000CDBF4C013A01E0900601F0900701C701CA
:100B5000861B970B9A878987409027015090280120
:100B6000A0900A01B0900B016091080170910901F9
:100B7000072E000C880B990B30D469837A838B8302
:100B80009C83E985FA85EA9DB001EB9D700DFA9D85
:100B9000700D1124072E000C880B990B1ED46D8349
:100BA0007E838F8398876201CC0CDD1C8601025BFB
:100BB0001E4FF8018081918169857A85681B790BC8
:100BC000072E000C880B990B08D429813A814B81A0
:100BD0005C818FD49B01AC016D817E818F81988572
:100BE000FDD220E030E040E251E45CD3C3D31B01EE
:100BF000709373016093720189859A85F8019183DE
:100C00008083F701E819F909FE83ED83F0936B0106
:100C1000E0936A01860102591E4FF801808191819B
:100C20006D817E81681B790B072E000C880B990B58
:100C3000D4D36B017C016093290170932A018093C6
:100C40002B0190932C018D819E81A89EB001A99EBD
:100C5000700DB89E700D1124072E000C880B990B97
:100C6000BCD34B015C01A701960169817A818B811C
:100C70009C813FD49B01AC01C501B401AFD220E0FF
:100C800030E040E251E40ED375D39B0170936201D2
:100C9000609361018D819E81F80191838083C201FF
:100CA000019690932801809327014091040150916F
:100CB00005018417950724F010922801109227014E
:100CC00033232CF0109262011092610111C087B59C
:100CD00090E0919581959109821793074CF087B523
:100CE00090E09195819591099093620180936101C3
:100CF00033202CF0109273011092720111C088B54C
:100D000090E0919581959109821593054CF088B5F5
:100D100090E0919581959109909373018093720170
:100D200090E2691671041CF44BDECDDB2BC0E09120
:100D30002701F0912801EE0FFF1FE259FE4F80813D
:100D40009181873F9F4F94F488B590E0919581956C
:100D50009109909373018093720187B590E091950A
:100D60008195910990936201809361019091610155
:100D700080914501890F87BD909172018091430157
:100D8000890F88BD2A960FB6F894DEBF0FBECDBF7F
:100D9000DF91CF911F910F91FF90EF90DF90CF9057
:100DA000BF90AF909F908F907F906F905F904F908B
:100DB0003F902F900895F8944091650150E0609124
:100DC0006D0170E08091680190E07894A0CE089564
:100DD00080910C0190910D018130910561F4809119
:100DE0003B0190913C01019789F478DC10923C0121
:100DF00010923B010895892B49F42D982E988091EB
:100E00003A01882319F010923A01D5CF0895ECEBFE
:100E1000F0E09081946A908390819923ECF790910F
:100E2000B900987F983029F084E98093BC0080E075
:100E3000089581608093BB0084E88093BC00ECEB54
:100E4000F0E080818823ECF78091B900887F8034BE
:100E500029F084E98093BC0080E00895ECEBF0E099
:100E600080818468808380818823ECF78091BB0037
:100E700094E99093BC0008952091100130911101E4
:100E80002115310589F4282F22952F7030E03093F9
:100E90000F0120930E018093500181E090E0909328
:100EA00011018093100118C040910E0150910F0163
:100EB0004F5F5F4F241735075CF4F901E05BFE4F8D
:100EC00080832F5F3F4F309311012093100104C0A6
:100ED000F901E05BFE4F808380910E0190910F013C
:100EE000019620911001309111012817390744F023
:100EF00081E0809316011092110110921001E89880
:100F000008951F920F920FB60F9211240BB60F92F5
:100F10002F933F934F935F936F937F938F939F9301
:100F2000AF93BF93EF93FF930000369B04C082E022
:100F30006EDFA2DF05C0379B03C086E068DF9CDF61
:100F4000FF91EF91BF91AF919F918F917F916F91A1
:100F50005F914F913F912F910F900BBE0F900FBE5D
:100F60000F901F90189580911601882309F4F0C006
:100F7000109216018091500183FD07C084E68A9586
:100F8000F1F760E571E082E0ADDC80915001E82F7F
:100F9000EF708E2F90E0FC01EA5BFF4F20C3809141
:100FA000510180936901D3C0E0E5F1E08381809332
:100FB0006D01828180936501818180936801C7C042
:100FC00081E090E090933C0180933B01E0E5F1E00B
:100FD000828190E0982F88272181820F911D909324
:100FE000600180935F01838190E090937101809311
:100FF0007001ADC081E080936C01A9C082E0809354
:101000006C01A5C083E080936C01A1C081E0809356
:101010004D0110923901109248011092470197C07A
:10102000109232011092310192C081E090E09093D1
:101030003201809331018BC082E090E090933201C5
:101040008093310184C084E090E0909332018093DA
:1010500031017DC083E090E09093320180933101B3
:1010600076C086E090E090933201809331016FC0AA
:1010700085E090E0909332018093310168C08091C7
:101080005101803F91F4809147019091480101976F
:1010900029F4109248011092470159C081E090E074
:1010A000909348018093470152C08F30F1F48091B2
:1010B000490190914A01019759F4599A5898109210
:1010C0004A011092490110924801109247013FC015
:1010D000589A599881E090E090934A018093490191
:1010E000109248011092470132C081110FC0E0E513
:1010F000F1E0828190E0909301018093000183816F
:1011000090E0909303018093020121C0813079F433
:10111000E0E5F1E0828190E090930901809308017D
:10112000838190E090930B0180930A0110C082307C
:1011300071F4E0E5F1E0828190E0909346018093C4
:101140004501838190E09093440180934301E89AA4
:10115000089567DB0E94760003DB0FDB81E0B2DBE2
:101160007894109246011092450110924401109219
:10117000430117BC8091430188BDF5DE80913901A0
:101180008111FBCF8091490190914A0181309105F5
:10119000F9F480912F0190913001019731F0809105
:1011A0002D0190912E01019729F410924A0110927D
:1011B0004901E3CF80914701909148018130910529
:1011C00011F406DEDACF892BC1F617BC18BCD5CFD7
:1011D000892B99F6599A0DDCD0CF5058BB27AA27F6
:1011E0000ED04DC13ED130F043D120F031F49F3FBD
:1011F00011F41EF433C10EF4E095E7FB29C1E92F89
:101200004FD180F3BA17620773078407950718F068
:1012100071F49EF567C10EF4E0950B2EBA2FA02D48
:101220000B01B90190010C01CA01A0011124FF2793
:10123000591B99F0593F50F4503E68F11A16F0408E
:10124000A22F232F342F4427585FF3CF469537958D
:101250002795A795F0405395C9F77EF41F16BA0B52
:10126000620B730B840BBAF09150A1F0FF0FBB1F00
:10127000661F771F881FC2F70EC0BA0F621F731F49
:10128000841F48F4879577956795B795F7959E3FA6
:1012900008F0B3CF9395880F08F09927EE0F979534
:1012A000879508950CD0EBC0E3D040F0DAD030F051
:1012B00021F45F3F19F0CCC0511115C1CFC0F0D05F
:1012C00098F39923C9F35523B1F3951B550BBB270D
:1012D000AA2762177307840738F09F5F5F4F220FBA
:1012E000331F441FAA1FA9F333D00E2E3AF0E0E8B3
:1012F00030D091505040E695001CCAF729D0FE2FFF
:1013000027D0660F771F881FBB1F26173707480790
:10131000AB07B0E809F0BB0B802DBF01FF27935846
:101320005F4F2AF09E3F510568F092C0DCC05F3FDE
:10133000ECF3983EDCF3869577956795B795F7952E
:101340009F5FC9F7880F911D9695879597F9089526
:10135000E1E0660F771F881FBB1F621773078407C2
:10136000BA0720F0621B730B840BBA0BEE1F88F7D1
:10137000E095089504D06894B111B5C0089598D04F
:1013800088F09F5790F0B92F9927B751A0F0D1F06E
:10139000660F771F881F991F1AF0BA95C9F712C0F8
:1013A000B13081F09FD0B1E008959CC0672F782FB5
:1013B0008827B85F39F0B93FCCF386957795679564
:1013C000B395D9F73EF490958095709561957F4FD0
:1013D0008F4F9F4F0895E89409C097FB3EF4909576
:1013E0008095709561957F4F8F4F9F4F9923A9F0FE
:1013F000F92F96E9BB279395F6958795779567958D
:10140000B795F111F8CFFAF4BB0F11F460FF1BC0D0
:101410006F5F7F4F8F4F9F4F16C0882311F096E963
:1014200011C0772321F09EE8872F762F05C0662311
:1014300071F096E8862F70E060E02AF09A95660FCA
:10144000771F881FDAF7880F9695879597F9089583
:1014500097F99F6780E870E060E008959FEF80EC67
:10146000089500240A94161617061806090608950A
:1014700000240A9412161306140605060895092E70
:101480000394000C11F4882352F0BB0F40F4BF2BDF
:1014900011F460FF04C06F5F7F4F8F4F9F4F08951F
:1014A00057FD9058440F551F59F05F3F71F0479515
:1014B000880F97FB991F61F09F3F79F087950895FA
:1014C000121613061406551FF2CF4695F1DF08C019
:1014D000161617061806991FF1CF86957105610536
:1014E00008940895E894BB2766277727CB0197F9DE
:1014F00008950BD0C4CFB5DF28F0BADF18F09523DC
:1015000009F0A6CFABCF1124EECFCADFA0F3959F91
:10151000D1F3950F50E0551F629FF001729FBB27DA
:10152000F00DB11D639FAA27F00DB11DAA1F649F86
:101530006627B00DA11D661F829F2227B00DA11D39
:10154000621F739FB00DA11D621F839FA00D611DBF
:10155000221F749F3327A00D611D231F849F600DE0
:10156000211D822F762F6A2F11249F5750408AF019
:10157000E1F088234AF0EE0FFF1FBB1F661F771FA5
:10158000881F91505040A9F79E3F510570F060CFE1
:10159000AACF5F3FECF3983EDCF38695779567958D
:1015A000B795F795E7959F5FC1F7FE2B880F911DC3
:1015B0009695879597F9089597FB072E16F4009452
:1015C00006D077FD08D014D007FC05D03EF49095E6
:1015D00081959F4F0895709561957F4F0895EE0F07
:1015E000FF1F0024001C0BBE0790F691E02D09940C
:1015F000AA1BBB1B51E107C0AA1FBB1FA617B70739
:1016000010F0A61BB70B881F991F5A95A9F7809554
:0C1610009095BC01CD010895F894FFCF27
:0E161C0028007800010014000A003C000100C4
:04000005008001472F
:00000001FF
