S01200006D61696E73656E736F722E73726563D3
S113000045C000002BC4000051C000004FC00000D8
S11300104DC000004BC0000049C0000047C00000B4
S113002045C0000043C0000041C000003FC00000C4
S11300303DC000003BC0000039C0000037C00000D4
S113004035C0000033C0000031C000002FC00000E4
S11300502DC000002BC0000029C0000027C00000F4
S113006025C0000023C0000021C000001FC0000004
S11300701DC000001BC0000019C0000017C0000014
S113008015C0000013C0000011C0000011241FBEE1
S1130090CFEFD0E4DEBFCDBF21E0A0E0B1E001C0EE
S11300A01D92AE34B207E1F72ED45BC4FAC384B117
S11300B08F6084B90895EAE7F0E0808186688083E0
S11300C0ECE7F0E08081806280830895ECE7F0E063
S11300D09081907F90839081892B8083EAE7F0E080
S11300E0808180648083808186FDFDCF809179004A
S11300F0089595B1907F95B995B1892B85B986E618
S11301009EE00197F1F7000080E0E0CF089580932E
S1130110BA0085EC8093BC003E9A0895FB012081CF
S113012022952F70422F50E050930D0140930C0103
S1130130ADE1B1E09A012F5F3F4F620F731F9191C0
S11301409D93E617F707D9F780934D0110920B01A1
S113015010920A01469AF6E3FA95F1F700004698E0
S113016008956093BB00ECEBF0E08081806C8083A9
S113017080818823ECF78091B900887F883BC1F0A7
S113018084E98093BC0020910C0130910D01809191
S11301900A0190910B012817390754F082E68A95D9
S11301A0F1F70000469A86E38A95F1F70000469835
S11301B00895ECEBF0E08081806C8083808188235B
S11301C0ECF78091BB000895CF93DF938091B90041
S11301D0887F803639F5C0910801D0910901E9DFA3
S11301E0C25FDE4F888380910E0182958F7090E00C
S11301F020910801309109012817390734F4ECEBF8
S1130200F0E080818F77808303C081E080930701D1
S113021080910801909109010196909309018093BE
S113022008011EC08091B900887F883A99F48091B2
S11302300A0190910B019C012F5F3F4F30930B01FA
S113024020930A01FC01E35EFE4F608180914D0121
S113025088DF06C08091B900887F803809F4A9DF5F
S113026080E0DF91CF910895CF93DF931F92CDB7B4
S1130270DEB781E02BDF873488F05D9A8FEF9FE84B
S11302800197F1F700C000008BB18F798BB983E03F
S11302908983BE016F5F7F4F84E040DF82E016DF19
S11302A08D3380F05E9A8FEF9FE80197F1F700C0DD
S11302B000008BB18F798BB984E08983BE016F5FB5
S11302C07F4F2CDF83E002DF873498F08BB18066A8
S11302D08BB98FEF9FE80197F1F700C000008BB155
S11302E08F798BB985E08983BE016F5F7F4F84E08E
S11302F015DF0F90DF91CF910895CF92DF92EF92A7
S1130300FF920F931F93CF93DF931F92CDB7DEB766
S113031090E0059722E2289F7001299FF00C112498
S11303208BB180668BB9FF20DCF0C12CD12C062F59
S113033010E086E0CBDE90E0801B910BC80ED91E46
S11303408FEF9FE80197F1F700C00000C601DD20A0
S113035024F4882799278C199D09E816F9064CF787
S113036086E08983BE016F5F7F4F84E0D7DE8BB167
S11303708F798BB90F90DF91CF911F910F91FF90DF
S1130380EF90DF90CF90089590910701913071F430
S1130390682F8AE5B2DF10920701109209011092CA
S11303A00801ECEBF0E080818F7780830895FF9261
S11303B00F931F93CF93DF930EE211E0F12CCDEC5A
S11303C0D0E08F2D96DEAE01481B51099A0112F43C
S11303D02D5F3F4F3595279535952795982F920F8B
S11303E0F80132979083920F31969083290FF80188
S11303F02083F3940D5F1F4FFBE0FF12E2CF8BB11C
S11304008F798BB92FEF8FEF98E021508040904087
S1130410E1F700C000008BB180668BB9EFEFFFE716
S113042026E1E150F0402040E1F700C000008BB12C
S11304308F798BB98FEF9FEFE8E081509040E040D7
S1130440E1F700C000008BB180668BB9FFEF2FEF9E
S113045088E0F15020408040E1F700C000008BB1FB
S11304608F798BB99FEFEFEFF8E09150E040F040C7
S1130470E1F700C000008BB180668BB92FEF8FEFDE
S113048098E0215080409040E1F700C000008BB11B
S11304908F798BB9DF91CF911F910F91FF900895C0
S11304A070E0FB01EE0FFF1FE60FF71FE45DFE4F48
S11304B090818917B8F0FB01EE0FFF1FE60FF71FBD
S11304C0E45DFE4F9181891778F0FB01EE0FFF1F69
S11304D06E0F7F1FFB01E45DFE4F9281891730F0A0
S11304E083E0089580E0089581E0089582E008950E
S11304F0CF93DF9300D000D0CDB7DEB7611106C033
S113050090910501892B809305017DC0613041F4F0
S1130510880F880F90910501892B8093050173C082
S1130520623051F420E1829FC001112490910501B1
S1130530892B8093050167C0633051F420E4829FC6
S1130540C001112490910501892B809305015BC0A2
S1130550643031F490910401892B8093040153C0D9
S1130560653041F4880F880F90910401892B8093A2
S1130570040149C0663051F420E1829FC001112476
S113058090910401892B809304013DC0673051F49C
S113059020E4829FC001112490910401892B80934F
S11305A0040131C0683031F490910301892B8093A8
S11305B0030129C0693041F4880F880F9091030129
S11305C0892B809303011FC06A30E9F420E1829FE4
S11305D0C001112490910301892B8093030192E3BC
S11305E09983909105019A83909104019B838C8354
S11305F0BE016F5F7F4F84E091DD10920501109280
S11306000401109203010F900F900F900F90DF914F
S1130610CF910895CF93C0E08C2F6BDD6C2F40DF1A
S11306206C2F66DFCF5FCB30B9F7CF9108958AB1D5
S11306308B618AB98BB183608BB92CEC8CEC91E023
S1130640215080409040E1F700C00895843530F592
S1130650873430F5813430F58D3330F58A3330F515
S1130660883330F5863330F5843330F5823330F512
S1130670803330F58F3230F58E3230F58D3230F5EF
S1130680893230F5863230F5813230F58A3130F5F1
S1130690863130F5823130F586E408958DE0089591
S11306A08EE008958FE0089580E1089581E1089532
S11306B082E1089583E1089584E1089585E1089530
S11306C086E1089587E1089588E1089589E1089510
S11306D08CE108958EE1089583E2089588E20895F7
S11306E082E308958CE308958235B0F48834B0F43D
S11306F08B33B0F48233B0F48B32B0F48432B0F480
S11307008F31B0F48C31B0F48231B0F48F30B0F466
S11307108B30B0F486E908958EE1089583E208955C
S113072088E2089582E308958CE3089586E40895A9
S113073080E508958AE5089584E6089588E7089594
S11307408CE808958BB18C7F8BB986E69EE0019787
S1130750F1F700008BB188618BB99FEF2FE382E042
S1130760915020408040E1F700C0000008958BB113
S1130770847E8BB98BB183608BB929E989E591E0DB
S1130780215080409040E1F700000895DF92EF92FD
S1130790FF920F931F93CF93DF9300D000D0CDB778
S11307A0DEB77C018BE0A5DCD82E8EE0A2DC182F0E
S11307B08FE09FDC082F8D2D97DFD82E812F46DF09
S11307C0182F802F43DF082FF70190819A3068F0AB
S11307D0193110F0893148F4F70110828FEF9FE846
S11307E00197F1F700C0000011C01332D0F40332B6
S11307F020F506C08DE07DDC77DF082FB8DF06C06A
S1130800EFEFFFE83197F1F700C0000081E389833F
S11308101A83DB820C83BE016F5F7F4F84E07EDC32
S113082011C09F5FF70190838DDF8CE062DC5CDF99
S1130830182F9DDF033250F3DDCF9F5FF7019083C4
S113084081DFD8CF0F900F900F900F90DF91CF9151
S11308501F910F91FF90EF90DF9008951F920F92D8
S11308600FB60F9211242F938F939F938BB18066B1
S11308708BB92FEF8FEF91E1215080409040E1F749
S113088000C000008BB18F798BB981E080930601A1
S1130890E09A9F918F912F910F900FBE0F901F9010
S11308A018951F920F920FB60F9211240BB60F9248
S11308B02F933F934F935F936F937F938F939F9364
S11308C0AF93BF93EF93FF937FDC85EC8093BC00E1
S11308D0FF91EF91BF91AF919F918F917F916F9114
S11308E05F914F913F912F910F900BBE0F900FBED0
S11308F00F901F901895E89AE9E6F0E080818260F5
S11309008083789408958AB180668AB990DECFDBBB
S1130910D2DB86E0FCDBEFDF86E0D8DBC82F9091EA
S11309200601913019F443DD1092060173DE82E072
S113093091E02CDF99DC8C2F27DD20910001309190
S11309400101283E83E0380729F410920101109236
S11309500001E5CF2F5F3F4F309301012093000149
S1090960DECFF894FFCF86
S9030000FC
